{
  "transactions": [
    {
      "hash": "0x644a541cc85c0d70505e6de2f02e2c276c7d0a436af85f5bf8b0bd146bd03be1",
      "transactionType": "CALL",
      "contractName": null,
      "contractAddress": "0x8464135c8f25da09e49bc8782676a84730c318bc",
      "function": "initialize((address,address,uint24,int24,address),uint160,bytes)",
      "arguments": [
        "(0x90118d110B07ABB82Ba8980D1c5cC96EeA810d2C, 0xC6bA8C3233eCF65B761049ef63466945c362EdD2, 8388608, 60, 0x98B6039Dc7367C408010f0B408123540F686e080)",
        "79228162514264337593543950336",
        "0x"
      ],
      "transaction": {
        "from": "0x70997970c51812dc3a010c7d01b50e0d17dc79c8",
        "to": "0x8464135c8f25da09e49bc8782676a84730c318bc",
        "gas": "0x1b7d1",
        "value": "0x0",
        "input": "0x695c5bf500000000000000000000000090118d110b07abb82ba8980d1c5cc96eea810d2c000000000000000000000000c6ba8c3233ecf65b761049ef63466945c362edd20000000000000000000000000000000000000000000000000000000000800000000000000000000000000000000000000000000000000000000000000000003c00000000000000000000000098b6039dc7367c408010f0b408123540f686e080000000000000000000000000000000000000000100000000000000000000000000000000000000000000000000000000000000000000000000000000000000e00000000000000000000000000000000000000000000000000000000000000000",
        "nonce": "0x19",
        "chainId": "0x7a69"
      },
      "additionalContracts": [],
      "isFixedGasLimit": false
    }
  ],
  "receipts": [
    {
      "status": "0x1",
      "cumulativeGasUsed": "0x13e6c",
      "logs": [
        {
          "address": "0x8464135c8f25da09e49bc8782676a84730c318bc",
          "topics": [
            "0xdd466e674ea557f56295e2d0218a125ea4b4f0f6f3307b95f85e6110838d6438",
            "0x113d7e0098ae10d3e79b9d70ed7ec65c580a37fa6eb5bef3f0ba26a648085ad1",
            "0x00000000000000000000000090118d110b07abb82ba8980d1c5cc96eea810d2c",
            "0x000000000000000000000000c6ba8c3233ecf65b761049ef63466945c362edd2"
          ],
          "data": "0x0000000000000000000000000000000000000000000000000000000000800000000000000000000000000000000000000000000000000000000000000000003c00000000000000000000000098b6039dc7367c408010f0b408123540f686e08000000000000000000000000000000000000000010000000000000000000000000000000000000000000000000000000000000000000000000000000000000000",
          "blockHash": "0xee0512064349c54fa702d3debf5f3659791745fbc17fb8838922a2ab5a8242fe",
          "blockNumber": "0xe",
          "blockTimestamp": "0x66e6c176",
          "transactionHash": "0x644a541cc85c0d70505e6de2f02e2c276c7d0a436af85f5bf8b0bd146bd03be1",
          "transactionIndex": "0x0",
          "logIndex": "0x0",
          "removed": false
        }
      ],
      "logsBloom": "0x40000000000800000000000000000000000000000000000000040000000000000000000000000000000000000000800000000000000000000000000000000002000000000000000000000000000000000000000000002000000000000000000000000000000000000000000000000000000000000000000000000000000000000000000000000008000000000000000000000001000000000000000000200000000000000000000000000000000000000000000000000000000000020000000000000000000000000000000000000000000000000010004800000000000000000000000008000000000000000000000000000000000000000000000010000000",
      "type": "0x2",
      "transactionHash": "0x644a541cc85c0d70505e6de2f02e2c276c7d0a436af85f5bf8b0bd146bd03be1",
      "transactionIndex": "0x0",
      "blockHash": "0xee0512064349c54fa702d3debf5f3659791745fbc17fb8838922a2ab5a8242fe",
      "blockNumber": "0xe",
      "gasUsed": "0x13e6c",
      "effectiveGasPrice": "0xba95a9a",
      "blobGasPrice": "0x1",
      "from": "0x70997970c51812dc3a010c7d01b50e0d17dc79c8",
      "to": "0x8464135c8f25da09e49bc8782676a84730c318bc",
      "contractAddress": null,
      "root": "0x144bb14e8bfa66227d296089a8281aeb1f0696199851ff05b0c4ae8c5c2c5e23"
    }
  ],
  "libraries": [],
  "pending": [],
  "returns": {},
  "timestamp": 1726398838,
  "chain": 31337,
  "commit": "58770db"
}