{
  "transactions": [
    {
      "hash": "0x3b2771dc995a4cb64d707088103372258ac4a7f93b9591392d1a7e2aa7b94d45",
      "transactionType": "CALL",
      "contractName": null,
      "contractAddress": "0x8464135c8f25da09e49bc8782676a84730c318bc",
      "function": "initialize((address,address,uint24,int24,address),uint160,bytes)",
      "arguments": [
        "(0x90118d110B07ABB82Ba8980D1c5cC96EeA810d2C, 0xC6bA8C3233eCF65B761049ef63466945c362EdD2, 8388608, 60, 0x25efFfd53b141366c87D9f3E7988A514e073A080)",
        "79228162514264337593543950336",
        "0x"
      ],
      "transaction": {
        "from": "0x70997970c51812dc3a010c7d01b50e0d17dc79c8",
        "to": "0x8464135c8f25da09e49bc8782676a84730c318bc",
        "gas": "0x1d04d",
        "value": "0x0",
        "input": "0x695c5bf500000000000000000000000090118d110b07abb82ba8980d1c5cc96eea810d2c000000000000000000000000c6ba8c3233ecf65b761049ef63466945c362edd20000000000000000000000000000000000000000000000000000000000800000000000000000000000000000000000000000000000000000000000000000003c00000000000000000000000025efffd53b141366c87d9f3e7988a514e073a080000000000000000000000000000000000000000100000000000000000000000000000000000000000000000000000000000000000000000000000000000000e00000000000000000000000000000000000000000000000000000000000000000",
        "nonce": "0x19",
        "chainId": "0x7a69"
      },
      "additionalContracts": [],
      "isFixedGasLimit": false
    }
  ],
  "receipts": [
    {
      "status": "0x1",
      "cumulativeGasUsed": "0x13d79",
      "logs": [
        {
          "address": "0x8464135c8f25da09e49bc8782676a84730c318bc",
          "topics": [
            "0xdd466e674ea557f56295e2d0218a125ea4b4f0f6f3307b95f85e6110838d6438",
            "0xe67a0f30a5b9593e480068912eacf055a9983cc1c973d6704c716c18b376bce1",
            "0x00000000000000000000000090118d110b07abb82ba8980d1c5cc96eea810d2c",
            "0x000000000000000000000000c6ba8c3233ecf65b761049ef63466945c362edd2"
          ],
          "data": "0x0000000000000000000000000000000000000000000000000000000000800000000000000000000000000000000000000000000000000000000000000000003c00000000000000000000000025efffd53b141366c87d9f3e7988a514e073a08000000000000000000000000000000000000000010000000000000000000000000000000000000000000000000000000000000000000000000000000000000000",
          "blockHash": "0x7073a200f0674576759c261edb9bf9c340e5fd1207c30e284cd19c325b15acd0",
          "blockNumber": "0x13",
          "blockTimestamp": "0x66e6cbe5",
          "transactionHash": "0x3b2771dc995a4cb64d707088103372258ac4a7f93b9591392d1a7e2aa7b94d45",
          "transactionIndex": "0x0",
          "logIndex": "0x0",
          "removed": false
        }
      ],
      "logsBloom": "0x40000000000800000000000000000000000000000000000000040000008000000000000000000000000000000000000000000000000000000000000000000002000000000000000000000000000000000000000000002000000000000000000000000000000000000000000000000000000000000000000800000000000000000000000000000008000000000000000000000001000000000000000000200000000000000000000000000000000000000000000000000000000000020000000000000000000000000000000000000000000000000000004000000000000000000000000008000000000400000000000000000000000000000000000010000000",
      "type": "0x2",
      "transactionHash": "0x3b2771dc995a4cb64d707088103372258ac4a7f93b9591392d1a7e2aa7b94d45",
      "transactionIndex": "0x0",
      "blockHash": "0x7073a200f0674576759c261edb9bf9c340e5fd1207c30e284cd19c325b15acd0",
      "blockNumber": "0x13",
      "gasUsed": "0x13d79",
      "effectiveGasPrice": "0x5f6b7f7",
      "blobGasPrice": "0x1",
      "from": "0x70997970c51812dc3a010c7d01b50e0d17dc79c8",
      "to": "0x8464135c8f25da09e49bc8782676a84730c318bc",
      "contractAddress": null,
      "root": "0x7256ded2213c1a866fe9672f285cc08be5520d9316b7e442447f59b32e2758cc"
    }
  ],
  "libraries": [],
  "pending": [],
  "returns": {},
  "timestamp": 1726401509,
  "chain": 31337,
  "commit": "58770db"
}