{
  "transactions": [
    {
      "hash": "0x7d95613c7c9c6e8ea56a1a8d7ed5b0598b1f7901b84320fab133ce651012a643",
      "transactionType": "CALL",
      "contractName": null,
      "contractAddress": "0x8464135c8f25da09e49bc8782676a84730c318bc",
      "function": "initialize((address,address,uint24,int24,address),uint160,bytes)",
      "arguments": [
        "(0x90118d110B07ABB82Ba8980D1c5cC96EeA810d2C, 0xC6bA8C3233eCF65B761049ef63466945c362EdD2, 8388608, 60, 0x36988F8C4086D770518a7189aC3793dA47196080)",
        "79228162514264337593543950336",
        "0x"
      ],
      "transaction": {
        "from": "0x70997970c51812dc3a010c7d01b50e0d17dc79c8",
        "to": "0x8464135c8f25da09e49bc8782676a84730c318bc",
        "gas": "0x1d07c",
        "value": "0x0",
        "input": "0x695c5bf500000000000000000000000090118d110b07abb82ba8980d1c5cc96eea810d2c000000000000000000000000c6ba8c3233ecf65b761049ef63466945c362edd20000000000000000000000000000000000000000000000000000000000800000000000000000000000000000000000000000000000000000000000000000003c00000000000000000000000036988f8c4086d770518a7189ac3793da47196080000000000000000000000000000000000000000100000000000000000000000000000000000000000000000000000000000000000000000000000000000000e00000000000000000000000000000000000000000000000000000000000000000",
        "nonce": "0x19",
        "chainId": "0x7a69"
      },
      "additionalContracts": [],
      "isFixedGasLimit": false
    }
  ],
  "receipts": [
    {
      "status": "0x1",
      "cumulativeGasUsed": "0x13d99",
      "logs": [
        {
          "address": "0x8464135c8f25da09e49bc8782676a84730c318bc",
          "topics": [
            "0xdd466e674ea557f56295e2d0218a125ea4b4f0f6f3307b95f85e6110838d6438",
            "0xd2d36c308291f023b38a9864b33cbafd8dac4d17f418bfd29d0f878ddd869aee",
            "0x00000000000000000000000090118d110b07abb82ba8980d1c5cc96eea810d2c",
            "0x000000000000000000000000c6ba8c3233ecf65b761049ef63466945c362edd2"
          ],
          "data": "0x0000000000000000000000000000000000000000000000000000000000800000000000000000000000000000000000000000000000000000000000000000003c00000000000000000000000036988f8c4086d770518a7189ac3793da4719608000000000000000000000000000000000000000010000000000000000000000000000000000000000000000000000000000000000000000000000000000000000",
          "blockHash": "0x0bd6bb3420245ab9f18ced10ff4879c2c9fd4577d72a167d7aa049a5758cea43",
          "blockNumber": "0x10",
          "blockTimestamp": "0x66e73037",
          "transactionHash": "0x7d95613c7c9c6e8ea56a1a8d7ed5b0598b1f7901b84320fab133ce651012a643",
          "transactionIndex": "0x0",
          "logIndex": "0x0",
          "removed": false
        }
      ],
      "logsBloom": "0x40000000000800000000000000000000000000000000000000040000000000000000000000000000000000000000000000000000000010000000000000000002000000000000000000000000000000000000000000002000000000000000000000000000000000000000000000000000000000000000000000000000000000000000000000000008000000000000000000000001000000000000000000200000000002000000000000000000000000000000000001000000000000020000000000000000000000000000000000000000000000000000004000000000000000000000000008000000000000000000000000000000000000000000000010000000",
      "type": "0x2",
      "transactionHash": "0x7d95613c7c9c6e8ea56a1a8d7ed5b0598b1f7901b84320fab133ce651012a643",
      "transactionIndex": "0x0",
      "blockHash": "0x0bd6bb3420245ab9f18ced10ff4879c2c9fd4577d72a167d7aa049a5758cea43",
      "blockNumber": "0x10",
      "gasUsed": "0x13d99",
      "effectiveGasPrice": "0x8e9bdc7",
      "blobGasPrice": "0x1",
      "from": "0x70997970c51812dc3a010c7d01b50e0d17dc79c8",
      "to": "0x8464135c8f25da09e49bc8782676a84730c318bc",
      "contractAddress": null,
      "root": "0xe8e8fa91c8bdf8d212ca6b4241643f00be2c1cd4e10c7f25eb5707c20be41d84"
    }
  ],
  "libraries": [],
  "pending": [],
  "returns": {},
  "timestamp": 1726427191,
  "chain": 31337,
  "commit": "77db34f"
}