{
  "transactions": [
    {
      "hash": "0x2a05990e88ce21ead8a331a810676bc7d4ae27feb0412e06b74a35b9c7fd2683",
      "transactionType": "CALL",
      "contractName": null,
      "contractAddress": "0x8464135c8f25da09e49bc8782676a84730c318bc",
      "function": "initialize((address,address,uint24,int24,address),uint160,bytes)",
      "arguments": [
        "(0x90118d110B07ABB82Ba8980D1c5cC96EeA810d2C, 0xC6bA8C3233eCF65B761049ef63466945c362EdD2, 8388608, 60, 0x9a55029d9A5379097bD99d90bEFD73987983a080)",
        "79228162514264337593543950336",
        "0x"
      ],
      "transaction": {
        "from": "0x70997970c51812dc3a010c7d01b50e0d17dc79c8",
        "to": "0x8464135c8f25da09e49bc8782676a84730c318bc",
        "gas": "0x1d07c",
        "value": "0x0",
        "input": "0x695c5bf500000000000000000000000090118d110b07abb82ba8980d1c5cc96eea810d2c000000000000000000000000c6ba8c3233ecf65b761049ef63466945c362edd20000000000000000000000000000000000000000000000000000000000800000000000000000000000000000000000000000000000000000000000000000003c0000000000000000000000009a55029d9a5379097bd99d90befd73987983a080000000000000000000000000000000000000000100000000000000000000000000000000000000000000000000000000000000000000000000000000000000e00000000000000000000000000000000000000000000000000000000000000000",
        "nonce": "0x19",
        "chainId": "0x7a69"
      },
      "additionalContracts": [],
      "isFixedGasLimit": false
    }
  ],
  "receipts": [
    {
      "status": "0x1",
      "cumulativeGasUsed": "0x13d99",
      "logs": [
        {
          "address": "0x8464135c8f25da09e49bc8782676a84730c318bc",
          "topics": [
            "0xdd466e674ea557f56295e2d0218a125ea4b4f0f6f3307b95f85e6110838d6438",
            "0x03e11d5fbe2d423ba2f90c965439a936d4715de3e1e6bdbf3236af01b7966e98",
            "0x00000000000000000000000090118d110b07abb82ba8980d1c5cc96eea810d2c",
            "0x000000000000000000000000c6ba8c3233ecf65b761049ef63466945c362edd2"
          ],
          "data": "0x0000000000000000000000000000000000000000000000000000000000800000000000000000000000000000000000000000000000000000000000000000003c0000000000000000000000009a55029d9a5379097bd99d90befd73987983a08000000000000000000000000000000000000000010000000000000000000000000000000000000000000000000000000000000000000000000000000000000000",
          "blockHash": "0x6870de1e541b07e58f60706b5fb22583ef3bebb71d126c62dc37ebc36cf02098",
          "blockNumber": "0xf",
          "blockTimestamp": "0x66e6c3a9",
          "transactionHash": "0x2a05990e88ce21ead8a331a810676bc7d4ae27feb0412e06b74a35b9c7fd2683",
          "transactionIndex": "0x0",
          "logIndex": "0x0",
          "removed": false
        }
      ],
      "logsBloom": "0x40000000000800000000000000000000000000000000000000040000000000000000000000000000000000000000000000000000000000000000000000000002000010000000000000000000000000000000000000002000000000000000000000000000000000000000000000000000000000000000000000000000000000000000000000000008000000000000000000000001000000000000000000200000000000000000000000000000000000000000000000000000000000020000000000000002000000000000010000000000000000000000004000000000000000000000000008000000000000000000000000000000000000000000000010000000",
      "type": "0x2",
      "transactionHash": "0x2a05990e88ce21ead8a331a810676bc7d4ae27feb0412e06b74a35b9c7fd2683",
      "transactionIndex": "0x0",
      "blockHash": "0x6870de1e541b07e58f60706b5fb22583ef3bebb71d126c62dc37ebc36cf02098",
      "blockNumber": "0xf",
      "gasUsed": "0x13d99",
      "effectiveGasPrice": "0xa2d58d7",
      "blobGasPrice": "0x1",
      "from": "0x70997970c51812dc3a010c7d01b50e0d17dc79c8",
      "to": "0x8464135c8f25da09e49bc8782676a84730c318bc",
      "contractAddress": null,
      "root": "0x898708403aff4ef6afb7f0edd8526992a80c161a4f971ed055f90c86023711ed"
    }
  ],
  "libraries": [],
  "pending": [],
  "returns": {},
  "timestamp": 1726399401,
  "chain": 31337,
  "commit": "58770db"
}