{
  "transactions": [
    {
      "hash": "0x372fc9676874333c8d4c389934660d6f498e10b3394bb7caa425be4996841a7f",
      "transactionType": "CALL",
      "contractName": null,
      "contractAddress": "0x8464135c8f25da09e49bc8782676a84730c318bc",
      "function": "initialize((address,address,uint24,int24,address),uint160,bytes)",
      "arguments": [
        "(0x90118d110B07ABB82Ba8980D1c5cC96EeA810d2C, 0xC6bA8C3233eCF65B761049ef63466945c362EdD2, 8388608, 60, 0xdfC125736804c7E46654278e154d8E4FE06d2080)",
        "79228162514264337593543950336",
        "0x"
      ],
      "transaction": {
        "from": "0x70997970c51812dc3a010c7d01b50e0d17dc79c8",
        "to": "0x8464135c8f25da09e49bc8782676a84730c318bc",
        "gas": "0x1d07c",
        "value": "0x0",
        "input": "0x695c5bf500000000000000000000000090118d110b07abb82ba8980d1c5cc96eea810d2c000000000000000000000000c6ba8c3233ecf65b761049ef63466945c362edd20000000000000000000000000000000000000000000000000000000000800000000000000000000000000000000000000000000000000000000000000000003c000000000000000000000000dfc125736804c7e46654278e154d8e4fe06d2080000000000000000000000000000000000000000100000000000000000000000000000000000000000000000000000000000000000000000000000000000000e00000000000000000000000000000000000000000000000000000000000000000",
        "nonce": "0x19",
        "chainId": "0x7a69"
      },
      "additionalContracts": [],
      "isFixedGasLimit": false
    }
  ],
  "receipts": [
    {
      "status": "0x1",
      "cumulativeGasUsed": "0x13d99",
      "logs": [
        {
          "address": "0x8464135c8f25da09e49bc8782676a84730c318bc",
          "topics": [
            "0xdd466e674ea557f56295e2d0218a125ea4b4f0f6f3307b95f85e6110838d6438",
            "0x6db593e69aa7995b298f44abc10912b146ae7ec81e425157208172d6da5b678e",
            "0x00000000000000000000000090118d110b07abb82ba8980d1c5cc96eea810d2c",
            "0x000000000000000000000000c6ba8c3233ecf65b761049ef63466945c362edd2"
          ],
          "data": "0x0000000000000000000000000000000000000000000000000000000000800000000000000000000000000000000000000000000000000000000000000000003c000000000000000000000000dfc125736804c7e46654278e154d8e4fe06d208000000000000000000000000000000000000000010000000000000000000000000000000000000000000000000000000000000000000000000000000000000000",
          "blockHash": "0x3e0ff6376e39d96f8f6e037fc7c2448a70dcd708ba9da2ee68f910ac4bccb510",
          "blockNumber": "0xf",
          "blockTimestamp": "0x66e6c793",
          "transactionHash": "0x372fc9676874333c8d4c389934660d6f498e10b3394bb7caa425be4996841a7f",
          "transactionIndex": "0x0",
          "logIndex": "0x0",
          "removed": false
        }
      ],
      "logsBloom": "0x40000000000800000000000000000000000800000000000000040000000000000000000000000000000000000000000000000000000000000000000000000002000000000000000000000000000000000000000000002000000000000000000000000000000000000000000000000000000000000000000000000000000000000000000000000008000000000000000000000001000000000000000000200000000000000000000000000000000000000000000000008000000000020000000000000000000000000000000000000000000000000000004000000000000000000000000008000000000000000000200000000000000000000000000010000000",
      "type": "0x2",
      "transactionHash": "0x372fc9676874333c8d4c389934660d6f498e10b3394bb7caa425be4996841a7f",
      "transactionIndex": "0x0",
      "blockHash": "0x3e0ff6376e39d96f8f6e037fc7c2448a70dcd708ba9da2ee68f910ac4bccb510",
      "blockNumber": "0xf",
      "gasUsed": "0x13d99",
      "effectiveGasPrice": "0xa2de1c6",
      "blobGasPrice": "0x1",
      "from": "0x70997970c51812dc3a010c7d01b50e0d17dc79c8",
      "to": "0x8464135c8f25da09e49bc8782676a84730c318bc",
      "contractAddress": null,
      "root": "0x0687e00e2420b2db55c62d9ccb41604d9506ce2b4eab70c9639b5ca7777dcaa8"
    }
  ],
  "libraries": [],
  "pending": [],
  "returns": {},
  "timestamp": 1726400403,
  "chain": 31337,
  "commit": "58770db"
}