{
  "transactions": [
    {
      "hash": "0xf734b8b94d62f8e61d9e6d2874dfd5912de5f2e61d7a632efbabefcf94365b66",
      "transactionType": "CALL",
      "contractName": null,
      "contractAddress": "0x8464135c8f25da09e49bc8782676a84730c318bc",
      "function": "initialize((address,address,uint24,int24,address),uint160,bytes)",
      "arguments": [
        "(0x90118d110B07ABB82Ba8980D1c5cC96EeA810d2C, 0xC6bA8C3233eCF65B761049ef63466945c362EdD2, 8388608, 60, 0x207466A2D5A09f943b391de7c147e67b7428A080)",
        "79228162514264337593543950336",
        "0x"
      ],
      "transaction": {
        "from": "0x70997970c51812dc3a010c7d01b50e0d17dc79c8",
        "to": "0x8464135c8f25da09e49bc8782676a84730c318bc",
        "gas": "0x1d07c",
        "value": "0x0",
        "input": "0x695c5bf500000000000000000000000090118d110b07abb82ba8980d1c5cc96eea810d2c000000000000000000000000c6ba8c3233ecf65b761049ef63466945c362edd20000000000000000000000000000000000000000000000000000000000800000000000000000000000000000000000000000000000000000000000000000003c000000000000000000000000207466a2d5a09f943b391de7c147e67b7428a080000000000000000000000000000000000000000100000000000000000000000000000000000000000000000000000000000000000000000000000000000000e00000000000000000000000000000000000000000000000000000000000000000",
        "nonce": "0x19",
        "chainId": "0x7a69"
      },
      "additionalContracts": [],
      "isFixedGasLimit": false
    }
  ],
  "receipts": [
    {
      "status": "0x1",
      "cumulativeGasUsed": "0x13d99",
      "logs": [
        {
          "address": "0x8464135c8f25da09e49bc8782676a84730c318bc",
          "topics": [
            "0xdd466e674ea557f56295e2d0218a125ea4b4f0f6f3307b95f85e6110838d6438",
            "0xeb6616e4cbfcdd0186a80824ee2eba8f75d103e31d7cf568ad1de0b39115074c",
            "0x00000000000000000000000090118d110b07abb82ba8980d1c5cc96eea810d2c",
            "0x000000000000000000000000c6ba8c3233ecf65b761049ef63466945c362edd2"
          ],
          "data": "0x0000000000000000000000000000000000000000000000000000000000800000000000000000000000000000000000000000000000000000000000000000003c000000000000000000000000207466a2d5a09f943b391de7c147e67b7428a08000000000000000000000000000000000000000010000000000000000000000000000000000000000000000000000000000000000000000000000000000000000",
          "blockHash": "0x560485d619c84f1ef5fbec87dca06f959a28e64c4934625a9435a9213cd2eca6",
          "blockNumber": "0xe",
          "blockTimestamp": "0x66e72ef1",
          "transactionHash": "0xf734b8b94d62f8e61d9e6d2874dfd5912de5f2e61d7a632efbabefcf94365b66",
          "transactionIndex": "0x0",
          "logIndex": "0x0",
          "removed": false
        }
      ],
      "logsBloom": "0x40000000000800000000000000000000000000000000000000040000000800000004000000000000000000000000000000000000000000000000000000000002000000000000000000000000000000000000000000002000000000000000000000000000000000000000000000000000000000000000000000000000000000000000000000000008000000000000000000000001000000000000000008200000000000000000000000000000000000000000000000000000000000020000000000000000000000000000000000000000000000000000004000000000000000000000000008000000000000000000000000000000000000000000000010000000",
      "type": "0x2",
      "transactionHash": "0xf734b8b94d62f8e61d9e6d2874dfd5912de5f2e61d7a632efbabefcf94365b66",
      "transactionIndex": "0x0",
      "blockHash": "0x560485d619c84f1ef5fbec87dca06f959a28e64c4934625a9435a9213cd2eca6",
      "blockNumber": "0xe",
      "gasUsed": "0x13d99",
      "effectiveGasPrice": "0xba5e62b",
      "blobGasPrice": "0x1",
      "from": "0x70997970c51812dc3a010c7d01b50e0d17dc79c8",
      "to": "0x8464135c8f25da09e49bc8782676a84730c318bc",
      "contractAddress": null,
      "root": "0x3c7a269632f329773f2e9210ccd10e74632bb1f5ef55321126308c93354e2274"
    }
  ],
  "libraries": [],
  "pending": [],
  "returns": {},
  "timestamp": 1726426865,
  "chain": 31337,
  "commit": "77db34f"
}