{
  "transactions": [
    {
      "hash": "0x1367ed305db98e5721bb7d4b04b44e6ee326d4e2ac5170d8b7fad130475c9219",
      "transactionType": "CALL",
      "contractName": null,
      "contractAddress": "0x8464135c8f25da09e49bc8782676a84730c318bc",
      "function": "initialize((address,address,uint24,int24,address),uint160,bytes)",
      "arguments": [
        "(0x90118d110B07ABB82Ba8980D1c5cC96EeA810d2C, 0xC6bA8C3233eCF65B761049ef63466945c362EdD2, 8388608, 60, 0x79AC5028166b9E686073f12883F37e297Ed9A080)",
        "79228162514264337593543950336",
        "0x"
      ],
      "transaction": {
        "from": "0x70997970c51812dc3a010c7d01b50e0d17dc79c8",
        "to": "0x8464135c8f25da09e49bc8782676a84730c318bc",
        "gas": "0x1b62d",
        "value": "0x0",
        "input": "0x695c5bf500000000000000000000000090118d110b07abb82ba8980d1c5cc96eea810d2c000000000000000000000000c6ba8c3233ecf65b761049ef63466945c362edd20000000000000000000000000000000000000000000000000000000000800000000000000000000000000000000000000000000000000000000000000000003c00000000000000000000000079ac5028166b9e686073f12883f37e297ed9a080000000000000000000000000000000000000000100000000000000000000000000000000000000000000000000000000000000000000000000000000000000e00000000000000000000000000000000000000000000000000000000000000000",
        "nonce": "0x19",
        "chainId": "0x7a69"
      },
      "additionalContracts": [],
      "isFixedGasLimit": false
    }
  ],
  "receipts": [
    {
      "status": "0x1",
      "cumulativeGasUsed": "0x13d3c",
      "logs": [
        {
          "address": "0x8464135c8f25da09e49bc8782676a84730c318bc",
          "topics": [
            "0xdd466e674ea557f56295e2d0218a125ea4b4f0f6f3307b95f85e6110838d6438",
            "0xc2bd946a12e2d65e42a3e8b32c4e90fcb10f7aae50794af5b1f427083b97bb39",
            "0x00000000000000000000000090118d110b07abb82ba8980d1c5cc96eea810d2c",
            "0x000000000000000000000000c6ba8c3233ecf65b761049ef63466945c362edd2"
          ],
          "data": "0x0000000000000000000000000000000000000000000000000000000000800000000000000000000000000000000000000000000000000000000000000000003c00000000000000000000000079ac5028166b9e686073f12883f37e297ed9a08000000000000000000000000000000000000000010000000000000000000000000000000000000000000000000000000000000000000000000000000000000000",
          "blockHash": "0x9160949cc42da7fc5b8d46fdd79f0d334d004ef59075dff411c4aa0bf4d91096",
          "blockNumber": "0xd",
          "blockTimestamp": "0x66e6bc66",
          "transactionHash": "0x1367ed305db98e5721bb7d4b04b44e6ee326d4e2ac5170d8b7fad130475c9219",
          "transactionIndex": "0x0",
          "logIndex": "0x0",
          "removed": false
        }
      ],
      "logsBloom": "0x40000000000800000000000000000000000000000000000000040000000000000000000000000000000000000400000000000000000000000000000010000002000000000000000000000000000000000000000000002000000000000000000000000000000000000000000000000000000000000000000000000000000000000000000000000008000000000000000000000001000000000000000000200000000000000000000000000000000000000000000000000000000000020000000000000000000000000000000000000000002000000000004000000000000000000000000008000000000000000000000000000000000000000000000010000000",
      "type": "0x2",
      "transactionHash": "0x1367ed305db98e5721bb7d4b04b44e6ee326d4e2ac5170d8b7fad130475c9219",
      "transactionIndex": "0x0",
      "blockHash": "0x9160949cc42da7fc5b8d46fdd79f0d334d004ef59075dff411c4aa0bf4d91096",
      "blockNumber": "0xd",
      "gasUsed": "0x13d3c",
      "effectiveGasPrice": "0xd4477bb",
      "blobGasPrice": "0x1",
      "from": "0x70997970c51812dc3a010c7d01b50e0d17dc79c8",
      "to": "0x8464135c8f25da09e49bc8782676a84730c318bc",
      "contractAddress": null,
      "root": "0x1c37d16441ad0e7d26d393de0dea8e3ff0a044063e6694e00decdc8ac096d619"
    }
  ],
  "libraries": [],
  "pending": [],
  "returns": {},
  "timestamp": 1726397542,
  "chain": 31337,
  "commit": "8ee9084"
}