{
  "transactions": [
    {
      "hash": "0xd9dbfea9f4ba862b831a3d9bb3131ea8d6a5ce4ab4ba80e9e53119b548f694ed",
      "transactionType": "CALL",
      "contractName": null,
      "contractAddress": "0x712516e61c8b383df4a63cfe83d7701bce54b03e",
      "function": "modifyLiquidity((address,address,uint24,int24,address),(int24,int24,int256,bytes32),bytes)",
      "arguments": [
        "(0x90118d110B07ABB82Ba8980D1c5cC96EeA810d2C, 0xC6bA8C3233eCF65B761049ef63466945c362EdD2, 8388608, 60, 0xdfC125736804c7E46654278e154d8E4FE06d2080)",
        "(-887220, 887220, 5000000000000000000271, 0x0000000000000000000000000000000000000000000000000000000000000000)",
        "0x"
      ],
      "transaction": {
        "from": "0x70997970c51812dc3a010c7d01b50e0d17dc79c8",
        "to": "0x712516e61c8b383df4a63cfe83d7701bce54b03e",
        "gas": "0x63c44",
        "value": "0x0",
        "input": "0x5a6bcfda00000000000000000000000090118d110b07abb82ba8980d1c5cc96eea810d2c000000000000000000000000c6ba8c3233ecf65b761049ef63466945c362edd20000000000000000000000000000000000000000000000000000000000800000000000000000000000000000000000000000000000000000000000000000003c000000000000000000000000dfc125736804c7e46654278e154d8e4fe06d2080fffffffffffffffffffffffffffffffffffffffffffffffffffffffffff2764c00000000000000000000000000000000000000000000000000000000000d89b400000000000000000000000000000000000000000000010f0cf064dd5920010f000000000000000000000000000000000000000000000000000000000000000000000000000000000000000000000000000000000000000000000000000001400000000000000000000000000000000000000000000000000000000000000000",
        "nonce": "0x1a",
        "chainId": "0x7a69"
      },
      "additionalContracts": [],
      "isFixedGasLimit": false
    }
  ],
  "receipts": [
    {
      "status": "0x1",
      "cumulativeGasUsed": "0x483ac",
      "logs": [
        {
          "address": "0x8464135c8f25da09e49bc8782676a84730c318bc",
          "topics": [
            "0xf208f4912782fd25c7f114ca3723a2d5dd6f3bcc3ac8db5af63baa85f711d5ec",
            "0x6db593e69aa7995b298f44abc10912b146ae7ec81e425157208172d6da5b678e",
            "0x000000000000000000000000712516e61c8b383df4a63cfe83d7701bce54b03e"
          ],
          "data": "0xfffffffffffffffffffffffffffffffffffffffffffffffffffffffffff2764c00000000000000000000000000000000000000000000000000000000000d89b400000000000000000000000000000000000000000000010f0cf064dd5920010f0000000000000000000000000000000000000000000000000000000000000000",
          "blockHash": "0x71525bcea73b7b92c4455f6511564d96ca362d68fe84139b449f832b06175be4",
          "blockNumber": "0x10",
          "blockTimestamp": "0x66e6c7da",
          "transactionHash": "0xd9dbfea9f4ba862b831a3d9bb3131ea8d6a5ce4ab4ba80e9e53119b548f694ed",
          "transactionIndex": "0x0",
          "logIndex": "0x0",
          "removed": false
        },
        {
          "address": "0x90118d110b07abb82ba8980d1c5cc96eea810d2c",
          "topics": [
            "0xddf252ad1be2c89b69c2b068fc378daa952ba7f163c4a11628f55a4df523b3ef",
            "0x00000000000000000000000070997970c51812dc3a010c7d01b50e0d17dc79c8",
            "0x0000000000000000000000008464135c8f25da09e49bc8782676a84730c318bc"
          ],
          "data": "0x00000000000000000000000000000000000000000000010f0cf064dd59200000",
          "blockHash": "0x71525bcea73b7b92c4455f6511564d96ca362d68fe84139b449f832b06175be4",
          "blockNumber": "0x10",
          "blockTimestamp": "0x66e6c7da",
          "transactionHash": "0xd9dbfea9f4ba862b831a3d9bb3131ea8d6a5ce4ab4ba80e9e53119b548f694ed",
          "transactionIndex": "0x0",
          "logIndex": "0x1",
          "removed": false
        },
        {
          "address": "0xc6ba8c3233ecf65b761049ef63466945c362edd2",
          "topics": [
            "0xddf252ad1be2c89b69c2b068fc378daa952ba7f163c4a11628f55a4df523b3ef",
            "0x00000000000000000000000070997970c51812dc3a010c7d01b50e0d17dc79c8",
            "0x0000000000000000000000008464135c8f25da09e49bc8782676a84730c318bc"
          ],
          "data": "0x00000000000000000000000000000000000000000000010f0cf064dd59200000",
          "blockHash": "0x71525bcea73b7b92c4455f6511564d96ca362d68fe84139b449f832b06175be4",
          "blockNumber": "0x10",
          "blockTimestamp": "0x66e6c7da",
          "transactionHash": "0xd9dbfea9f4ba862b831a3d9bb3131ea8d6a5ce4ab4ba80e9e53119b548f694ed",
          "transactionIndex": "0x0",
          "logIndex": "0x2",
          "removed": false
        }
      ],
      "logsBloom": "0x00000000200000000002000000000000000800000000000000040000000000000000000000000004000000000000000000000000000000000000200000000000000000000000000000000408000000000000000000002000000000000000000040000800000000000000000000000000000000000000000000000010000000000000040001000000000000002000004000002000000000000000000000000000000004000000000000000000000000040000000020008000000000000000000000000002000000000000000000000080000000000000004000000000000000000000000000000000000000000000200005000000000000000000000000000000",
      "type": "0x2",
      "transactionHash": "0xd9dbfea9f4ba862b831a3d9bb3131ea8d6a5ce4ab4ba80e9e53119b548f694ed",
      "transactionIndex": "0x0",
      "blockHash": "0x71525bcea73b7b92c4455f6511564d96ca362d68fe84139b449f832b06175be4",
      "blockNumber": "0x10",
      "gasUsed": "0x483ac",
      "effectiveGasPrice": "0x8e9e98c",
      "blobGasPrice": "0x1",
      "from": "0x70997970c51812dc3a010c7d01b50e0d17dc79c8",
      "to": "0x712516e61c8b383df4a63cfe83d7701bce54b03e",
      "contractAddress": null,
      "root": "0x53906c6342b9b1bd22f528f2b091b8ae14f1157dce358e6fe32050588c528f21"
    }
  ],
  "libraries": [],
  "pending": [],
  "returns": {},
  "timestamp": 1726400474,
  "chain": 31337,
  "commit": "58770db"
}