{
  "transactions": [
    {
      "hash": "0xab484de27376a31b59af46ec078be9cbfa0140e918380d65889faa549eb4963c",
      "transactionType": "CALL",
      "contractName": null,
      "contractAddress": "0x712516e61c8b383df4a63cfe83d7701bce54b03e",
      "function": "modifyLiquidity((address,address,uint24,int24,address),(int24,int24,int256,bytes32),bytes)",
      "arguments": [
        "(0x90118d110B07ABB82Ba8980D1c5cC96EeA810d2C, 0xC6bA8C3233eCF65B761049ef63466945c362EdD2, 8388608, 60, 0x36988F8C4086D770518a7189aC3793dA47196080)",
        "(-887220, 887220, 5000000000000000000271, 0x0000000000000000000000000000000000000000000000000000000000000000)",
        "0x"
      ],
      "transaction": {
        "from": "0x70997970c51812dc3a010c7d01b50e0d17dc79c8",
        "to": "0x712516e61c8b383df4a63cfe83d7701bce54b03e",
        "gas": "0x63c44",
        "value": "0x0",
        "input": "0x5a6bcfda00000000000000000000000090118d110b07abb82ba8980d1c5cc96eea810d2c000000000000000000000000c6ba8c3233ecf65b761049ef63466945c362edd20000000000000000000000000000000000000000000000000000000000800000000000000000000000000000000000000000000000000000000000000000003c00000000000000000000000036988f8c4086d770518a7189ac3793da47196080fffffffffffffffffffffffffffffffffffffffffffffffffffffffffff2764c00000000000000000000000000000000000000000000000000000000000d89b400000000000000000000000000000000000000000000010f0cf064dd5920010f000000000000000000000000000000000000000000000000000000000000000000000000000000000000000000000000000000000000000000000000000001400000000000000000000000000000000000000000000000000000000000000000",
        "nonce": "0x1a",
        "chainId": "0x7a69"
      },
      "additionalContracts": [],
      "isFixedGasLimit": false
    }
  ],
  "receipts": [
    {
      "status": "0x1",
      "cumulativeGasUsed": "0x483ac",
      "logs": [
        {
          "address": "0x8464135c8f25da09e49bc8782676a84730c318bc",
          "topics": [
            "0xf208f4912782fd25c7f114ca3723a2d5dd6f3bcc3ac8db5af63baa85f711d5ec",
            "0xd2d36c308291f023b38a9864b33cbafd8dac4d17f418bfd29d0f878ddd869aee",
            "0x000000000000000000000000712516e61c8b383df4a63cfe83d7701bce54b03e"
          ],
          "data": "0xfffffffffffffffffffffffffffffffffffffffffffffffffffffffffff2764c00000000000000000000000000000000000000000000000000000000000d89b400000000000000000000000000000000000000000000010f0cf064dd5920010f0000000000000000000000000000000000000000000000000000000000000000",
          "blockHash": "0xc700c3a38f98263db8154a5ab14ae550f807463e2c4a483f0daf8a2ccd1bc834",
          "blockNumber": "0x11",
          "blockTimestamp": "0x66e73063",
          "transactionHash": "0xab484de27376a31b59af46ec078be9cbfa0140e918380d65889faa549eb4963c",
          "transactionIndex": "0x0",
          "logIndex": "0x0",
          "removed": false
        },
        {
          "address": "0x90118d110b07abb82ba8980d1c5cc96eea810d2c",
          "topics": [
            "0xddf252ad1be2c89b69c2b068fc378daa952ba7f163c4a11628f55a4df523b3ef",
            "0x00000000000000000000000070997970c51812dc3a010c7d01b50e0d17dc79c8",
            "0x0000000000000000000000008464135c8f25da09e49bc8782676a84730c318bc"
          ],
          "data": "0x00000000000000000000000000000000000000000000010f0cf064dd59200000",
          "blockHash": "0xc700c3a38f98263db8154a5ab14ae550f807463e2c4a483f0daf8a2ccd1bc834",
          "blockNumber": "0x11",
          "blockTimestamp": "0x66e73063",
          "transactionHash": "0xab484de27376a31b59af46ec078be9cbfa0140e918380d65889faa549eb4963c",
          "transactionIndex": "0x0",
          "logIndex": "0x1",
          "removed": false
        },
        {
          "address": "0xc6ba8c3233ecf65b761049ef63466945c362edd2",
          "topics": [
            "0xddf252ad1be2c89b69c2b068fc378daa952ba7f163c4a11628f55a4df523b3ef",
            "0x00000000000000000000000070997970c51812dc3a010c7d01b50e0d17dc79c8",
            "0x0000000000000000000000008464135c8f25da09e49bc8782676a84730c318bc"
          ],
          "data": "0x00000000000000000000000000000000000000000000010f0cf064dd59200000",
          "blockHash": "0xc700c3a38f98263db8154a5ab14ae550f807463e2c4a483f0daf8a2ccd1bc834",
          "blockNumber": "0x11",
          "blockTimestamp": "0x66e73063",
          "transactionHash": "0xab484de27376a31b59af46ec078be9cbfa0140e918380d65889faa549eb4963c",
          "transactionIndex": "0x0",
          "logIndex": "0x2",
          "removed": false
        }
      ],
      "logsBloom": "0x00000000200000000002000000000000000000000000000000040000000000000000000000000004000000000000000000000000000010000000200000000000000000000000000000000408000000000000000000002000000000000000000040000800000000000000000000000000000000000000000000000010000000000000040001000000000000002000004000002000000000000000000000000000000006000000000000000000000000040000000021000000000000000000000000000002000000000000000000000080000000000000004000000000000000000000000000000000000000000000000005000000000000000000000000000000",
      "type": "0x2",
      "transactionHash": "0xab484de27376a31b59af46ec078be9cbfa0140e918380d65889faa549eb4963c",
      "transactionIndex": "0x0",
      "blockHash": "0xc700c3a38f98263db8154a5ab14ae550f807463e2c4a483f0daf8a2ccd1bc834",
      "blockNumber": "0x11",
      "gasUsed": "0x483ac",
      "effectiveGasPrice": "0x7ce11d4",
      "blobGasPrice": "0x1",
      "from": "0x70997970c51812dc3a010c7d01b50e0d17dc79c8",
      "to": "0x712516e61c8b383df4a63cfe83d7701bce54b03e",
      "contractAddress": null,
      "root": "0x9e46eb680870b8cd01fa8572b2cf4008c4d2f7da230feb87bb9ed0b32b3571ab"
    }
  ],
  "libraries": [],
  "pending": [],
  "returns": {},
  "timestamp": 1726427235,
  "chain": 31337,
  "commit": "77db34f"
}