{
  "transactions": [
    {
      "hash": "0x453aa3b850c9c65f7b208fa8f8181c82a51b5910962e88f4b5266c6f19053561",
      "transactionType": "CALL",
      "contractName": null,
      "contractAddress": "0x71c95911e9a5d330f4d621842ec243ee1343292e",
      "function": "swap((address,address,uint24,int24,address),(bool,int256,uint160),(bool,bool),bytes)",
      "arguments": [
        "(0x90118d110B07ABB82Ba8980D1c5cC96EeA810d2C, 0xC6bA8C3233eCF65B761049ef63466945c362EdD2, 8388608, 60, 0xdfC125736804c7E46654278e154d8E4FE06d2080)",
        "(false, -30000000000000000000, 1461446703485210103287273052203988822378723970341)",
        "(false, false)",
        "0x"
      ],
      "transaction": {
        "from": "0x70997970c51812dc3a010c7d01b50e0d17dc79c8",
        "to": "0x71c95911e9a5d330f4d621842ec243ee1343292e",
        "gas": "0x43c5a",
        "value": "0x0",
        "input": "0x2229d0b400000000000000000000000090118d110b07abb82ba8980d1c5cc96eea810d2c000000000000000000000000c6ba8c3233ecf65b761049ef63466945c362edd20000000000000000000000000000000000000000000000000000000000800000000000000000000000000000000000000000000000000000000000000000003c000000000000000000000000dfc125736804c7e46654278e154d8e4fe06d20800000000000000000000000000000000000000000000000000000000000000000fffffffffffffffffffffffffffffffffffffffffffffffe5faa96f262480000000000000000000000000000fffd8963efd1fc6a506488495d951d5263988d250000000000000000000000000000000000000000000000000000000000000000000000000000000000000000000000000000000000000000000000000000000000000000000000000000000000000000000000000000000000000000000001600000000000000000000000000000000000000000000000000000000000000000",
        "nonce": "0x1d",
        "chainId": "0x7a69"
      },
      "additionalContracts": [],
      "isFixedGasLimit": false
    }
  ],
  "receipts": [
    {
      "status": "0x1",
      "cumulativeGasUsed": "0x3110e",
      "logs": [
        {
          "address": "0x8464135c8f25da09e49bc8782676a84730c318bc",
          "topics": [
            "0x40e9cecb9f5f1f1c5b9c97dec2917b7ee92e57ba5563708daca94dd84ad7112f",
            "0x6db593e69aa7995b298f44abc10912b146ae7ec81e425157208172d6da5b678e",
            "0x00000000000000000000000071c95911e9a5d330f4d621842ec243ee1343292e"
          ],
          "data": "0x00000000000000000000000000000000000000000000000197b9257de4789c3afffffffffffffffffffffffffffffffffffffffffffffffe5faa96f2624800000000000000000000000000000000000000000001031140805ef1384d31913f3e00000000000000000000000000000000000000000000010f0cf064dd5920010f00000000000000000000000000000000000000000000000000000000000000ee0000000000000000000000000000000000000000000000000000000000000bb9",
          "blockHash": "0x453d17f4c724935065bfc6ea8885f5801c46d2072d45c993f9a9d42e6d388e47",
          "blockNumber": "0x13",
          "blockTimestamp": "0x66e6ca47",
          "transactionHash": "0x453aa3b850c9c65f7b208fa8f8181c82a51b5910962e88f4b5266c6f19053561",
          "transactionIndex": "0x0",
          "logIndex": "0x0",
          "removed": false
        },
        {
          "address": "0xc6ba8c3233ecf65b761049ef63466945c362edd2",
          "topics": [
            "0xddf252ad1be2c89b69c2b068fc378daa952ba7f163c4a11628f55a4df523b3ef",
            "0x00000000000000000000000070997970c51812dc3a010c7d01b50e0d17dc79c8",
            "0x0000000000000000000000008464135c8f25da09e49bc8782676a84730c318bc"
          ],
          "data": "0x000000000000000000000000000000000000000000000001a055690d9db80000",
          "blockHash": "0x453d17f4c724935065bfc6ea8885f5801c46d2072d45c993f9a9d42e6d388e47",
          "blockNumber": "0x13",
          "blockTimestamp": "0x66e6ca47",
          "transactionHash": "0x453aa3b850c9c65f7b208fa8f8181c82a51b5910962e88f4b5266c6f19053561",
          "transactionIndex": "0x0",
          "logIndex": "0x1",
          "removed": false
        },
        {
          "address": "0x90118d110b07abb82ba8980d1c5cc96eea810d2c",
          "topics": [
            "0xddf252ad1be2c89b69c2b068fc378daa952ba7f163c4a11628f55a4df523b3ef",
            "0x0000000000000000000000008464135c8f25da09e49bc8782676a84730c318bc",
            "0x00000000000000000000000070997970c51812dc3a010c7d01b50e0d17dc79c8"
          ],
          "data": "0x00000000000000000000000000000000000000000000000197b9257de4789c3a",
          "blockHash": "0x453d17f4c724935065bfc6ea8885f5801c46d2072d45c993f9a9d42e6d388e47",
          "blockNumber": "0x13",
          "blockTimestamp": "0x66e6ca47",
          "transactionHash": "0x453aa3b850c9c65f7b208fa8f8181c82a51b5910962e88f4b5266c6f19053561",
          "transactionIndex": "0x0",
          "logIndex": "0x2",
          "removed": false
        }
      ],
      "logsBloom": "0x000000000000000000020000000000000008000000000000000400000000000000000000000000040000000000000000000000000400000000002000000000000000000000000000000004080000000000000000000020200000000000000000000008000000000000000000000000000000000000000000000000100000000000000c0000000000000000002000004000000000000000000000000000000000000000000000000000000000000000040008000020008000000000000000000000000002000000000000000000000080000100000000004000000000000000000000000000000000004000000000200001000000000000000000000000000000",
      "type": "0x2",
      "transactionHash": "0x453aa3b850c9c65f7b208fa8f8181c82a51b5910962e88f4b5266c6f19053561",
      "transactionIndex": "0x0",
      "blockHash": "0x453d17f4c724935065bfc6ea8885f5801c46d2072d45c993f9a9d42e6d388e47",
      "blockNumber": "0x13",
      "gasUsed": "0x3110e",
      "effectiveGasPrice": "0x6018984",
      "blobGasPrice": "0x1",
      "from": "0x70997970c51812dc3a010c7d01b50e0d17dc79c8",
      "to": "0x71c95911e9a5d330f4d621842ec243ee1343292e",
      "contractAddress": null,
      "root": "0xe1d6729053a8d39c1faf9a5f729b2990583a655616f968f4d5e14612347b91fa"
    }
  ],
  "libraries": [],
  "pending": [],
  "returns": {},
  "timestamp": 1726401095,
  "chain": 31337,
  "commit": "58770db"
}