{
  "transactions": [
    {
      "hash": "0xbf7987d70b624c82d72858b5873165e0521413fc90be004c2a2626ed251e81d2",
      "transactionType": "CALL",
      "contractName": null,
      "contractAddress": "0x71c95911e9a5d330f4d621842ec243ee1343292e",
      "function": "swap((address,address,uint24,int24,address),(bool,int256,uint160),(bool,bool),bytes)",
      "arguments": [
        "(0x90118d110B07ABB82Ba8980D1c5cC96EeA810d2C, 0xC6bA8C3233eCF65B761049ef63466945c362EdD2, 8388608, 60, 0x36988F8C4086D770518a7189aC3793dA47196080)",
        "(false, -3000000000000000000, 1461446703485210103287273052203988822378723970341)",
        "(false, false)",
        "0x"
      ],
      "transaction": {
        "from": "0x70997970c51812dc3a010c7d01b50e0d17dc79c8",
        "to": "0x71c95911e9a5d330f4d621842ec243ee1343292e",
        "gas": "0x3c366",
        "value": "0x0",
        "input": "0x2229d0b400000000000000000000000090118d110b07abb82ba8980d1c5cc96eea810d2c000000000000000000000000c6ba8c3233ecf65b761049ef63466945c362edd20000000000000000000000000000000000000000000000000000000000800000000000000000000000000000000000000000000000000000000000000000003c00000000000000000000000036988f8c4086d770518a7189ac3793da471960800000000000000000000000000000000000000000000000000000000000000000ffffffffffffffffffffffffffffffffffffffffffffffffd65ddbe509d40000000000000000000000000000fffd8963efd1fc6a506488495d951d5263988d250000000000000000000000000000000000000000000000000000000000000000000000000000000000000000000000000000000000000000000000000000000000000000000000000000000000000000000000000000000000000000000001600000000000000000000000000000000000000000000000000000000000000000",
        "nonce": "0x1d",
        "chainId": "0x7a69"
      },
      "additionalContracts": [],
      "isFixedGasLimit": false
    }
  ],
  "receipts": [
    {
      "status": "0x1",
      "cumulativeGasUsed": "0x2b97d",
      "logs": [
        {
          "address": "0x8464135c8f25da09e49bc8782676a84730c318bc",
          "topics": [
            "0x40e9cecb9f5f1f1c5b9c97dec2917b7ee92e57ba5563708daca94dd84ad7112f",
            "0xd2d36c308291f023b38a9864b33cbafd8dac4d17f418bfd29d0f878ddd869aee",
            "0x00000000000000000000000071c95911e9a5d330f4d621842ec243ee1343292e"
          ],
          "data": "0x000000000000000000000000000000000000000000000000296dd75fe83e9da3ffffffffffffffffffffffffffffffffffffffffffffffffd65ddbe509d400000000000000000000000000000000000000000001004e85484eaf57ca55a65ea500000000000000000000000000000000000000000000010f0cf064dd5920010f00000000000000000000000000000000000000000000000000000000000000170000000000000000000000000000000000000000000000000000000000000c2d",
          "blockHash": "0x88183883aca70d38ee1a042986355858f6d01415b9682facf8c91e409badc28f",
          "blockNumber": "0x14",
          "blockTimestamp": "0x66e730ae",
          "transactionHash": "0xbf7987d70b624c82d72858b5873165e0521413fc90be004c2a2626ed251e81d2",
          "transactionIndex": "0x0",
          "logIndex": "0x0",
          "removed": false
        },
        {
          "address": "0xc6ba8c3233ecf65b761049ef63466945c362edd2",
          "topics": [
            "0xddf252ad1be2c89b69c2b068fc378daa952ba7f163c4a11628f55a4df523b3ef",
            "0x00000000000000000000000070997970c51812dc3a010c7d01b50e0d17dc79c8",
            "0x0000000000000000000000008464135c8f25da09e49bc8782676a84730c318bc"
          ],
          "data": "0x00000000000000000000000000000000000000000000000029a2241af62c0000",
          "blockHash": "0x88183883aca70d38ee1a042986355858f6d01415b9682facf8c91e409badc28f",
          "blockNumber": "0x14",
          "blockTimestamp": "0x66e730ae",
          "transactionHash": "0xbf7987d70b624c82d72858b5873165e0521413fc90be004c2a2626ed251e81d2",
          "transactionIndex": "0x0",
          "logIndex": "0x1",
          "removed": false
        },
        {
          "address": "0x90118d110b07abb82ba8980d1c5cc96eea810d2c",
          "topics": [
            "0xddf252ad1be2c89b69c2b068fc378daa952ba7f163c4a11628f55a4df523b3ef",
            "0x0000000000000000000000008464135c8f25da09e49bc8782676a84730c318bc",
            "0x00000000000000000000000070997970c51812dc3a010c7d01b50e0d17dc79c8"
          ],
          "data": "0x000000000000000000000000000000000000000000000000296dd75fe83e9da3",
          "blockHash": "0x88183883aca70d38ee1a042986355858f6d01415b9682facf8c91e409badc28f",
          "blockNumber": "0x14",
          "blockTimestamp": "0x66e730ae",
          "transactionHash": "0xbf7987d70b624c82d72858b5873165e0521413fc90be004c2a2626ed251e81d2",
          "transactionIndex": "0x0",
          "logIndex": "0x2",
          "removed": false
        }
      ],
      "logsBloom": "0x000000000000000000020000000000000000000000000000000400000000000000000000000000040000000000000000000000000400100000002000000000000000000000000000000004080000000000000000000020200000000000000000000008000000000000000000000000000000000000000000000000100000000000000c0000000000000000002000004000000000000000000000000000000000000002000000000000000000000000040008000021000000000000000000000000000002000000000000000000000080000100000000004000000000000000000000000000000000004000000000000001000000000000000000000000000000",
      "type": "0x2",
      "transactionHash": "0xbf7987d70b624c82d72858b5873165e0521413fc90be004c2a2626ed251e81d2",
      "transactionIndex": "0x0",
      "blockHash": "0x88183883aca70d38ee1a042986355858f6d01415b9682facf8c91e409badc28f",
      "blockNumber": "0x14",
      "gasUsed": "0x2b97d",
      "effectiveGasPrice": "0x5424626",
      "blobGasPrice": "0x1",
      "from": "0x70997970c51812dc3a010c7d01b50e0d17dc79c8",
      "to": "0x71c95911e9a5d330f4d621842ec243ee1343292e",
      "contractAddress": null,
      "root": "0x44c109743408c1a3399bc89bd163eefd1ea46372a3558ea7302e80b0bd6a8352"
    }
  ],
  "libraries": [],
  "pending": [],
  "returns": {},
  "timestamp": 1726427310,
  "chain": 31337,
  "commit": "77db34f"
}