{
  "transactions": [
    {
      "hash": "0xa63ffebeb770e7cadb6619ca6a2ea003de842a880fdc078863b907b1997c3074",
      "transactionType": "CALL",
      "contractName": null,
      "contractAddress": "0x71c95911e9a5d330f4d621842ec243ee1343292e",
      "function": "swap((address,address,uint24,int24,address),(bool,int256,uint160),(bool,bool),bytes)",
      "arguments": [
        "(0x90118d110B07ABB82Ba8980D1c5cC96EeA810d2C, 0xC6bA8C3233eCF65B761049ef63466945c362EdD2, 8388608, 60, 0x25efFfd53b141366c87D9f3E7988A514e073A080)",
        "(false, -30000000000000000000, 1461446703485210103287273052203988822378723970341)",
        "(false, false)",
        "0x"
      ],
      "transaction": {
        "from": "0x70997970c51812dc3a010c7d01b50e0d17dc79c8",
        "to": "0x71c95911e9a5d330f4d621842ec243ee1343292e",
        "gas": "0x3b9e6",
        "value": "0x0",
        "input": "0x2229d0b400000000000000000000000090118d110b07abb82ba8980d1c5cc96eea810d2c000000000000000000000000c6ba8c3233ecf65b761049ef63466945c362edd20000000000000000000000000000000000000000000000000000000000800000000000000000000000000000000000000000000000000000000000000000003c00000000000000000000000025efffd53b141366c87d9f3e7988a514e073a0800000000000000000000000000000000000000000000000000000000000000000fffffffffffffffffffffffffffffffffffffffffffffffe5faa96f262480000000000000000000000000000fffd8963efd1fc6a506488495d951d5263988d250000000000000000000000000000000000000000000000000000000000000000000000000000000000000000000000000000000000000000000000000000000000000000000000000000000000000000000000000000000000000000000001600000000000000000000000000000000000000000000000000000000000000000",
        "nonce": "0x1e",
        "chainId": "0x7a69"
      },
      "additionalContracts": [],
      "isFixedGasLimit": false
    }
  ],
  "receipts": [
    {
      "status": "0x1",
      "cumulativeGasUsed": "0x2b29c",
      "logs": [
        {
          "address": "0x8464135c8f25da09e49bc8782676a84730c318bc",
          "topics": [
            "0x40e9cecb9f5f1f1c5b9c97dec2917b7ee92e57ba5563708daca94dd84ad7112f",
            "0xe67a0f30a5b9593e480068912eacf055a9983cc1c973d6704c716c18b376bce1",
            "0x00000000000000000000000071c95911e9a5d330f4d621842ec243ee1343292e"
          ],
          "data": "0x0000000000000000000000000000000000000000000000018e2d6e83f946c8c6fffffffffffffffffffffffffffffffffffffffffffffffe5faa96f2624800000000000000000000000000000000000000000001061ff31818ae2a52e74bb33600000000000000000000000000000000000000000000010f0cf064dd5920010f00000000000000000000000000000000000000000000000000000000000001d80000000000000000000000000000000000000000000000000000000000000c54",
          "blockHash": "0x98dabc0c80c8a6cda5e1cbc2aa505fb0efe27b44ea857287a8a17e0e52c2a405",
          "blockNumber": "0x18",
          "blockTimestamp": "0x66e6cdad",
          "transactionHash": "0xa63ffebeb770e7cadb6619ca6a2ea003de842a880fdc078863b907b1997c3074",
          "transactionIndex": "0x0",
          "logIndex": "0x0",
          "removed": false
        },
        {
          "address": "0xc6ba8c3233ecf65b761049ef63466945c362edd2",
          "topics": [
            "0xddf252ad1be2c89b69c2b068fc378daa952ba7f163c4a11628f55a4df523b3ef",
            "0x00000000000000000000000070997970c51812dc3a010c7d01b50e0d17dc79c8",
            "0x0000000000000000000000008464135c8f25da09e49bc8782676a84730c318bc"
          ],
          "data": "0x000000000000000000000000000000000000000000000001a055690d9db80000",
          "blockHash": "0x98dabc0c80c8a6cda5e1cbc2aa505fb0efe27b44ea857287a8a17e0e52c2a405",
          "blockNumber": "0x18",
          "blockTimestamp": "0x66e6cdad",
          "transactionHash": "0xa63ffebeb770e7cadb6619ca6a2ea003de842a880fdc078863b907b1997c3074",
          "transactionIndex": "0x0",
          "logIndex": "0x1",
          "removed": false
        },
        {
          "address": "0x90118d110b07abb82ba8980d1c5cc96eea810d2c",
          "topics": [
            "0xddf252ad1be2c89b69c2b068fc378daa952ba7f163c4a11628f55a4df523b3ef",
            "0x0000000000000000000000008464135c8f25da09e49bc8782676a84730c318bc",
            "0x00000000000000000000000070997970c51812dc3a010c7d01b50e0d17dc79c8"
          ],
          "data": "0x0000000000000000000000000000000000000000000000018e2d6e83f946c8c6",
          "blockHash": "0x98dabc0c80c8a6cda5e1cbc2aa505fb0efe27b44ea857287a8a17e0e52c2a405",
          "blockNumber": "0x18",
          "blockTimestamp": "0x66e6cdad",
          "transactionHash": "0xa63ffebeb770e7cadb6619ca6a2ea003de842a880fdc078863b907b1997c3074",
          "transactionIndex": "0x0",
          "logIndex": "0x2",
          "removed": false
        }
      ],
      "logsBloom": "0x000000000000000000020000000000000000000000000000000400000080000000000000000000040000000000000000000000000400000000002000000000000000000000000000000004080000000000000000000020200000000000000000000008000000000000000000000000000000000000000008000000100000000000000c0000000000000000002000004000000000000000000000000000000000000000000000000000000000000000040008000020000000000000000000000000000002000000000000000000000080000100000000004000000000000000000000000000000000004400000000000001000000000000000000000000000000",
      "type": "0x2",
      "transactionHash": "0xa63ffebeb770e7cadb6619ca6a2ea003de842a880fdc078863b907b1997c3074",
      "transactionIndex": "0x0",
      "blockHash": "0x98dabc0c80c8a6cda5e1cbc2aa505fb0efe27b44ea857287a8a17e0e52c2a405",
      "blockNumber": "0x18",
      "gasUsed": "0x2b29c",
      "effectiveGasPrice": "0x315eab4",
      "blobGasPrice": "0x1",
      "from": "0x70997970c51812dc3a010c7d01b50e0d17dc79c8",
      "to": "0x71c95911e9a5d330f4d621842ec243ee1343292e",
      "contractAddress": null,
      "root": "0xc4bbf1acd3813ae2d5bce0ce096a24e4cc0d05f631cad5ee09ed249a0370c797"
    }
  ],
  "libraries": [],
  "pending": [],
  "returns": {},
  "timestamp": 1726401965,
  "chain": 31337,
  "commit": "58770db"
}