{
  "transactions": [
    {
      "hash": "0x196440bb2bed2e005c2191a4ff83d919c1fe182dad8b5de0c3fbda8bc6b81b95",
      "transactionType": "CALL",
      "contractName": null,
      "contractAddress": "0x71c95911e9a5d330f4d621842ec243ee1343292e",
      "function": "swap((address,address,uint24,int24,address),(bool,int256,uint160),(bool,bool),bytes)",
      "arguments": [
        "(0x90118d110B07ABB82Ba8980D1c5cC96EeA810d2C, 0xC6bA8C3233eCF65B761049ef63466945c362EdD2, 8388608, 60, 0x36988F8C4086D770518a7189aC3793dA47196080)",
        "(false, -100000000000000000000, 1461446703485210103287273052203988822378723970341)",
        "(false, false)",
        "0x"
      ],
      "transaction": {
        "from": "0x70997970c51812dc3a010c7d01b50e0d17dc79c8",
        "to": "0x71c95911e9a5d330f4d621842ec243ee1343292e",
        "gas": "0x2ac43",
        "value": "0x0",
        "input": "0x2229d0b400000000000000000000000090118d110b07abb82ba8980d1c5cc96eea810d2c000000000000000000000000c6ba8c3233ecf65b761049ef63466945c362edd20000000000000000000000000000000000000000000000000000000000800000000000000000000000000000000000000000000000000000000000000000003c00000000000000000000000036988f8c4086d770518a7189ac3793da471960800000000000000000000000000000000000000000000000000000000000000000fffffffffffffffffffffffffffffffffffffffffffffffa9438a1d29cf00000000000000000000000000000fffd8963efd1fc6a506488495d951d5263988d250000000000000000000000000000000000000000000000000000000000000000000000000000000000000000000000000000000000000000000000000000000000000000000000000000000000000000000000000000000000000000000001600000000000000000000000000000000000000000000000000000000000000000",
        "nonce": "0x1f",
        "chainId": "0x7a69"
      },
      "additionalContracts": [],
      "isFixedGasLimit": false
    }
  ],
  "receipts": [
    {
      "status": "0x1",
      "cumulativeGasUsed": "0x23544",
      "logs": [
        {
          "address": "0x8464135c8f25da09e49bc8782676a84730c318bc",
          "topics": [
            "0x40e9cecb9f5f1f1c5b9c97dec2917b7ee92e57ba5563708daca94dd84ad7112f",
            "0xd2d36c308291f023b38a9864b33cbafd8dac4d17f418bfd29d0f878ddd869aee",
            "0x00000000000000000000000071c95911e9a5d330f4d621842ec243ee1343292e"
          ],
          "data": "0x0000000000000000000000000000000000000000000000054740bd10dd32bd06fffffffffffffffffffffffffffffffffffffffffffffffa9438a1d29cf0000000000000000000000000000000000000000000010590027ab054aef468428c4c00000000000000000000000000000000000000000000010f0cf064dd5920010f00000000000000000000000000000000000000000000000000000000000001ad0000000000000000000000000000000000000000000000000000000000000d30",
          "blockHash": "0x8f5b06687dd920449abfd286b0251b4c6397c872c8516bc1bea7f3849f729672",
          "blockNumber": "0x16",
          "blockTimestamp": "0x66e73121",
          "transactionHash": "0x196440bb2bed2e005c2191a4ff83d919c1fe182dad8b5de0c3fbda8bc6b81b95",
          "transactionIndex": "0x0",
          "logIndex": "0x0",
          "removed": false
        },
        {
          "address": "0xc6ba8c3233ecf65b761049ef63466945c362edd2",
          "topics": [
            "0xddf252ad1be2c89b69c2b068fc378daa952ba7f163c4a11628f55a4df523b3ef",
            "0x00000000000000000000000070997970c51812dc3a010c7d01b50e0d17dc79c8",
            "0x0000000000000000000000008464135c8f25da09e49bc8782676a84730c318bc"
          ],
          "data": "0x0000000000000000000000000000000000000000000000056bc75e2d63100000",
          "blockHash": "0x8f5b06687dd920449abfd286b0251b4c6397c872c8516bc1bea7f3849f729672",
          "blockNumber": "0x16",
          "blockTimestamp": "0x66e73121",
          "transactionHash": "0x196440bb2bed2e005c2191a4ff83d919c1fe182dad8b5de0c3fbda8bc6b81b95",
          "transactionIndex": "0x0",
          "logIndex": "0x1",
          "removed": false
        },
        {
          "address": "0x90118d110b07abb82ba8980d1c5cc96eea810d2c",
          "topics": [
            "0xddf252ad1be2c89b69c2b068fc378daa952ba7f163c4a11628f55a4df523b3ef",
            "0x0000000000000000000000008464135c8f25da09e49bc8782676a84730c318bc",
            "0x00000000000000000000000070997970c51812dc3a010c7d01b50e0d17dc79c8"
          ],
          "data": "0x0000000000000000000000000000000000000000000000054740bd10dd32bd06",
          "blockHash": "0x8f5b06687dd920449abfd286b0251b4c6397c872c8516bc1bea7f3849f729672",
          "blockNumber": "0x16",
          "blockTimestamp": "0x66e73121",
          "transactionHash": "0x196440bb2bed2e005c2191a4ff83d919c1fe182dad8b5de0c3fbda8bc6b81b95",
          "transactionIndex": "0x0",
          "logIndex": "0x2",
          "removed": false
        }
      ],
      "logsBloom": "0x000000000000000000020000000000000000000000000000000400000000000000000000000000040000000000000000000000000400100000002000000000000000000000000000000004080000000000000000000020200000000000000000000008000000000000000000000000000000000000000000000000100000000000000c0000000000000000002000004000000000000000000000000000000000000002000000000000000000000000040008000021000000000000000000000000000002000000000000000000000080000100000000004000000000000000000000000000000000004000000000000001000000000000000000000000000000",
      "type": "0x2",
      "transactionHash": "0x196440bb2bed2e005c2191a4ff83d919c1fe182dad8b5de0c3fbda8bc6b81b95",
      "transactionIndex": "0x0",
      "blockHash": "0x8f5b06687dd920449abfd286b0251b4c6397c872c8516bc1bea7f3849f729672",
      "blockNumber": "0x16",
      "gasUsed": "0x23544",
      "effectiveGasPrice": "0x409e9c7",
      "blobGasPrice": "0x1",
      "from": "0x70997970c51812dc3a010c7d01b50e0d17dc79c8",
      "to": "0x71c95911e9a5d330f4d621842ec243ee1343292e",
      "contractAddress": null,
      "root": "0xb8b95c5850c13da8c05edef71d17faa0a6b19c20eea4e85e709b87803ade6b7b"
    }
  ],
  "libraries": [],
  "pending": [],
  "returns": {},
  "timestamp": 1726427425,
  "chain": 31337,
  "commit": "77db34f"
}