{
  "transactions": [
    {
      "hash": "0x1c1bf8cfda5389f8588debd9855234e68a8983aa0fcdff55bea62817bd49c901",
      "transactionType": "CALL",
      "contractName": null,
      "contractAddress": "0x71c95911e9a5d330f4d621842ec243ee1343292e",
      "function": "swap((address,address,uint24,int24,address),(bool,int256,uint160),(bool,bool),bytes)",
      "arguments": [
        "(0x90118d110B07ABB82Ba8980D1c5cC96EeA810d2C, 0xC6bA8C3233eCF65B761049ef63466945c362EdD2, 8388608, 60, 0x98B6039Dc7367C408010f0B408123540F686e080)",
        "(false, -3000000000000000000, 1461446703485210103287273052203988822378723970341)",
        "(false, false)",
        "0x"
      ],
      "transaction": {
        "from": "0x70997970c51812dc3a010c7d01b50e0d17dc79c8",
        "to": "0x71c95911e9a5d330f4d621842ec243ee1343292e",
        "gas": "0x3005d",
        "value": "0x0",
        "input": "0x2229d0b400000000000000000000000090118d110b07abb82ba8980d1c5cc96eea810d2c000000000000000000000000c6ba8c3233ecf65b761049ef63466945c362edd20000000000000000000000000000000000000000000000000000000000800000000000000000000000000000000000000000000000000000000000000000003c00000000000000000000000098b6039dc7367c408010f0b408123540f686e0800000000000000000000000000000000000000000000000000000000000000000ffffffffffffffffffffffffffffffffffffffffffffffffd65ddbe509d40000000000000000000000000000fffd8963efd1fc6a506488495d951d5263988d250000000000000000000000000000000000000000000000000000000000000000000000000000000000000000000000000000000000000000000000000000000000000000000000000000000000000000000000000000000000000000000001600000000000000000000000000000000000000000000000000000000000000000",
        "nonce": "0x1b",
        "chainId": "0x7a69"
      },
      "additionalContracts": [],
      "isFixedGasLimit": false
    }
  ],
  "receipts": [
    {
      "status": "0x1",
      "cumulativeGasUsed": "0x20d61",
      "logs": [
        {
          "address": "0x8464135c8f25da09e49bc8782676a84730c318bc",
          "topics": [
            "0x40e9cecb9f5f1f1c5b9c97dec2917b7ee92e57ba5563708daca94dd84ad7112f",
            "0x113d7e0098ae10d3e79b9d70ed7ec65c580a37fa6eb5bef3f0ba26a648085ad1",
            "0x00000000000000000000000071c95911e9a5d330f4d621842ec243ee1343292e"
          ],
          "data": "0x000000000000000000000000000000000000000000000000299bbfff1bfdebd6ffffffffffffffffffffffffffffffffffffffffffffffffd65ddbe509d4000000000000000000000000000000000000000000010027525460aa64c2f810642e00000000000000000000000000000000000000000000010f0cf064dd5920010f000000000000000000000000000000000000000000000000000000000000000b0000000000000000000000000000000000000000000000000000000000000000",
          "blockHash": "0x01760b170bfa5313edc7a86f0fe1c9fb328f7b0f307e4e407f67c8ce5302c7f3",
          "blockNumber": "0x10",
          "blockTimestamp": "0x66e6c1ee",
          "transactionHash": "0x1c1bf8cfda5389f8588debd9855234e68a8983aa0fcdff55bea62817bd49c901",
          "transactionIndex": "0x0",
          "logIndex": "0x0",
          "removed": false
        },
        {
          "address": "0xc6ba8c3233ecf65b761049ef63466945c362edd2",
          "topics": [
            "0xddf252ad1be2c89b69c2b068fc378daa952ba7f163c4a11628f55a4df523b3ef",
            "0x00000000000000000000000070997970c51812dc3a010c7d01b50e0d17dc79c8",
            "0x0000000000000000000000008464135c8f25da09e49bc8782676a84730c318bc"
          ],
          "data": "0x00000000000000000000000000000000000000000000000029a2241af62c0000",
          "blockHash": "0x01760b170bfa5313edc7a86f0fe1c9fb328f7b0f307e4e407f67c8ce5302c7f3",
          "blockNumber": "0x10",
          "blockTimestamp": "0x66e6c1ee",
          "transactionHash": "0x1c1bf8cfda5389f8588debd9855234e68a8983aa0fcdff55bea62817bd49c901",
          "transactionIndex": "0x0",
          "logIndex": "0x1",
          "removed": false
        },
        {
          "address": "0x90118d110b07abb82ba8980d1c5cc96eea810d2c",
          "topics": [
            "0xddf252ad1be2c89b69c2b068fc378daa952ba7f163c4a11628f55a4df523b3ef",
            "0x0000000000000000000000008464135c8f25da09e49bc8782676a84730c318bc",
            "0x00000000000000000000000070997970c51812dc3a010c7d01b50e0d17dc79c8"
          ],
          "data": "0x000000000000000000000000000000000000000000000000299bbfff1bfdebd6",
          "blockHash": "0x01760b170bfa5313edc7a86f0fe1c9fb328f7b0f307e4e407f67c8ce5302c7f3",
          "blockNumber": "0x10",
          "blockTimestamp": "0x66e6c1ee",
          "transactionHash": "0x1c1bf8cfda5389f8588debd9855234e68a8983aa0fcdff55bea62817bd49c901",
          "transactionIndex": "0x0",
          "logIndex": "0x2",
          "removed": false
        }
      ],
      "logsBloom": "0x000000000000000000020000000000000000000000000000000400000000000000000000000000040000000000008000000000000400000000002000000000000000000000000000000004080000000000000000000020200000000000000000000008000000000000000000000000000000000000000000000000100000000000000c0000000000000000002000004000000000000000000000000000000000000000000000000000000000000000040008000020000000000000000000000000000002000000000000000000000080000100000010004800000000000000000000000000000000004000000000000001000000000000000000000000000000",
      "type": "0x2",
      "transactionHash": "0x1c1bf8cfda5389f8588debd9855234e68a8983aa0fcdff55bea62817bd49c901",
      "transactionIndex": "0x0",
      "blockHash": "0x01760b170bfa5313edc7a86f0fe1c9fb328f7b0f307e4e407f67c8ce5302c7f3",
      "blockNumber": "0x10",
      "gasUsed": "0x20d61",
      "effectiveGasPrice": "0x8f5e198",
      "blobGasPrice": "0x1",
      "from": "0x70997970c51812dc3a010c7d01b50e0d17dc79c8",
      "to": "0x71c95911e9a5d330f4d621842ec243ee1343292e",
      "contractAddress": null,
      "root": "0x0d851bc3f5026467660145911a8f43f74e4543ce0afc09ef636c5d5564f44023"
    }
  ],
  "libraries": [],
  "pending": [],
  "returns": {},
  "timestamp": 1726398958,
  "chain": 31337,
  "commit": "58770db"
}