{
  "transactions": [
    {
      "hash": "0xac689b40ea41d73dc6ee834627bb02b7e87f14cdcd73ef39446972c3ec2f83b3",
      "transactionType": "CALL",
      "contractName": null,
      "contractAddress": "0x71c95911e9a5d330f4d621842ec243ee1343292e",
      "function": "swap((address,address,uint24,int24,address),(bool,int256,uint160),(bool,bool),bytes)",
      "arguments": [
        "(0x90118d110B07ABB82Ba8980D1c5cC96EeA810d2C, 0xC6bA8C3233eCF65B761049ef63466945c362EdD2, 8388608, 60, 0x79AC5028166b9E686073f12883F37e297Ed9A080)",
        "(false, -3000000000000000000, 1461446703485210103287273052203988822378723970341)",
        "(false, false)",
        "0x"
      ],
      "transaction": {
        "from": "0x70997970c51812dc3a010c7d01b50e0d17dc79c8",
        "to": "0x71c95911e9a5d330f4d621842ec243ee1343292e",
        "gas": "0x2aaee",
        "value": "0x0",
        "input": "0x2229d0b400000000000000000000000090118d110b07abb82ba8980d1c5cc96eea810d2c000000000000000000000000c6ba8c3233ecf65b761049ef63466945c362edd20000000000000000000000000000000000000000000000000000000000800000000000000000000000000000000000000000000000000000000000000000003c00000000000000000000000079ac5028166b9e686073f12883f37e297ed9a0800000000000000000000000000000000000000000000000000000000000000000ffffffffffffffffffffffffffffffffffffffffffffffffd65ddbe509d40000000000000000000000000000fffd8963efd1fc6a506488495d951d5263988d250000000000000000000000000000000000000000000000000000000000000000000000000000000000000000000000000000000000000000000000000000000000000000000000000000000000000000000000000000000000000000000001600000000000000000000000000000000000000000000000000000000000000000",
        "nonce": "0x1e",
        "chainId": "0x7a69"
      },
      "additionalContracts": [],
      "isFixedGasLimit": false
    }
  ],
  "receipts": [
    {
      "status": "0x1",
      "cumulativeGasUsed": "0x236cd",
      "logs": [
        {
          "address": "0x8464135c8f25da09e49bc8782676a84730c318bc",
          "topics": [
            "0x40e9cecb9f5f1f1c5b9c97dec2917b7ee92e57ba5563708daca94dd84ad7112f",
            "0xc2bd946a12e2d65e42a3e8b32c4e90fcb10f7aae50794af5b1f427083b97bb39",
            "0x00000000000000000000000071c95911e9a5d330f4d621842ec243ee1343292e"
          ],
          "data": "0x0000000000000000000000000000000000000000000000001f05fcc523fe1ae0ffffffffffffffffffffffffffffffffffffffffffffffffd65ddbe509d400000000000000000000000000000000000000000001006aef719948b18cb97e2e5000000000000000000000000000000000000000000000010f0cf064dd5920010f0000000000000000000000000000000000000000000000000000000000000020000000000000000000000000000000000000000000000000000000000003db48",
          "blockHash": "0xe8216339d1baf9c632ec7fb68c5f3ac845035c38e250abf8459d12462a744eaa",
          "blockNumber": "0x12",
          "blockTimestamp": "0x66e6befd",
          "transactionHash": "0xac689b40ea41d73dc6ee834627bb02b7e87f14cdcd73ef39446972c3ec2f83b3",
          "transactionIndex": "0x0",
          "logIndex": "0x0",
          "removed": false
        },
        {
          "address": "0xc6ba8c3233ecf65b761049ef63466945c362edd2",
          "topics": [
            "0xddf252ad1be2c89b69c2b068fc378daa952ba7f163c4a11628f55a4df523b3ef",
            "0x00000000000000000000000070997970c51812dc3a010c7d01b50e0d17dc79c8",
            "0x0000000000000000000000008464135c8f25da09e49bc8782676a84730c318bc"
          ],
          "data": "0x00000000000000000000000000000000000000000000000029a2241af62c0000",
          "blockHash": "0xe8216339d1baf9c632ec7fb68c5f3ac845035c38e250abf8459d12462a744eaa",
          "blockNumber": "0x12",
          "blockTimestamp": "0x66e6befd",
          "transactionHash": "0xac689b40ea41d73dc6ee834627bb02b7e87f14cdcd73ef39446972c3ec2f83b3",
          "transactionIndex": "0x0",
          "logIndex": "0x1",
          "removed": false
        },
        {
          "address": "0x90118d110b07abb82ba8980d1c5cc96eea810d2c",
          "topics": [
            "0xddf252ad1be2c89b69c2b068fc378daa952ba7f163c4a11628f55a4df523b3ef",
            "0x0000000000000000000000008464135c8f25da09e49bc8782676a84730c318bc",
            "0x00000000000000000000000070997970c51812dc3a010c7d01b50e0d17dc79c8"
          ],
          "data": "0x0000000000000000000000000000000000000000000000001f05fcc523fe1ae0",
          "blockHash": "0xe8216339d1baf9c632ec7fb68c5f3ac845035c38e250abf8459d12462a744eaa",
          "blockNumber": "0x12",
          "blockTimestamp": "0x66e6befd",
          "transactionHash": "0xac689b40ea41d73dc6ee834627bb02b7e87f14cdcd73ef39446972c3ec2f83b3",
          "transactionIndex": "0x0",
          "logIndex": "0x2",
          "removed": false
        }
      ],
      "logsBloom": "0x000000000000000000020000000000000000000000000000000400000000000000000000000000040000000004000000000000000400000000002000100000000000000000000000000004080000000000000000000020200000000000000000000008000000000000000000000000000000000000000000000000100000000000000c0000000000000000002000004000000000000000000000000000000000000000000000000000000000000000040008000020000000000000000000000000000002000000000000000000000080002100000000004000000000000000000000000000000000004000000000000001000000000000000000000000000000",
      "type": "0x2",
      "transactionHash": "0xac689b40ea41d73dc6ee834627bb02b7e87f14cdcd73ef39446972c3ec2f83b3",
      "transactionIndex": "0x0",
      "blockHash": "0xe8216339d1baf9c632ec7fb68c5f3ac845035c38e250abf8459d12462a744eaa",
      "blockNumber": "0x12",
      "gasUsed": "0x236cd",
      "effectiveGasPrice": "0x6dc819e",
      "blobGasPrice": "0x1",
      "from": "0x70997970c51812dc3a010c7d01b50e0d17dc79c8",
      "to": "0x71c95911e9a5d330f4d621842ec243ee1343292e",
      "contractAddress": null,
      "root": "0x12a464a1089ce5190ce624177fb8ff1a5db82f2e6648ef7c1b59aee6b21bd539"
    }
  ],
  "libraries": [],
  "pending": [],
  "returns": {},
  "timestamp": 1726398205,
  "chain": 31337,
  "commit": "8ee9084"
}