{
  "transactions": [
    {
      "hash": "0xf2297fb207eaf72e3b34994f3d72a7b42d17c3634d9e309708256f9c17c3a388",
      "transactionType": "CALL",
      "contractName": null,
      "contractAddress": "0x71c95911e9a5d330f4d621842ec243ee1343292e",
      "function": "swap((address,address,uint24,int24,address),(bool,int256,uint160),(bool,bool),bytes)",
      "arguments": [
        "(0x90118d110B07ABB82Ba8980D1c5cC96EeA810d2C, 0xC6bA8C3233eCF65B761049ef63466945c362EdD2, 8388608, 60, 0x207466A2D5A09f943b391de7c147e67b7428A080)",
        "(false, -3000000000000000000, 1461446703485210103287273052203988822378723970341)",
        "(false, false)",
        "0x"
      ],
      "transaction": {
        "from": "0x70997970c51812dc3a010c7d01b50e0d17dc79c8",
        "to": "0x71c95911e9a5d330f4d621842ec243ee1343292e",
        "gas": "0x2d264",
        "value": "0x0",
        "input": "0x2229d0b400000000000000000000000090118d110b07abb82ba8980d1c5cc96eea810d2c000000000000000000000000c6ba8c3233ecf65b761049ef63466945c362edd20000000000000000000000000000000000000000000000000000000000800000000000000000000000000000000000000000000000000000000000000000003c000000000000000000000000207466a2d5a09f943b391de7c147e67b7428a0800000000000000000000000000000000000000000000000000000000000000000ffffffffffffffffffffffffffffffffffffffffffffffffd65ddbe509d40000000000000000000000000000fffd8963efd1fc6a506488495d951d5263988d250000000000000000000000000000000000000000000000000000000000000000000000000000000000000000000000000000000000000000000000000000000000000000000000000000000000000000000000000000000000000000000001600000000000000000000000000000000000000000000000000000000000000000",
        "nonce": "0x1f",
        "chainId": "0x7a69"
      },
      "additionalContracts": [],
      "isFixedGasLimit": false
    }
  ],
  "receipts": [
    {
      "status": "0x1",
      "cumulativeGasUsed": "0x233a5",
      "logs": [
        {
          "address": "0x8464135c8f25da09e49bc8782676a84730c318bc",
          "topics": [
            "0x40e9cecb9f5f1f1c5b9c97dec2917b7ee92e57ba5563708daca94dd84ad7112f",
            "0xeb6616e4cbfcdd0186a80824ee2eba8f75d103e31d7cf568ad1de0b39115074c",
            "0x00000000000000000000000071c95911e9a5d330f4d621842ec243ee1343292e"
          ],
          "data": "0x0000000000000000000000000000000000000000000000002951ca03ac75f464ffffffffffffffffffffffffffffffffffffffffffffffffd65ddbe509d400000000000000000000000000000000000000000001009ce74d73d4a2a9eefd7acc00000000000000000000000000000000000000000000010f0cf064dd5920010f000000000000000000000000000000000000000000000000000000000000002f0000000000000000000000000000000000000000000000000000000000000d30",
          "blockHash": "0xe5933239cb3d764404e97d704d34be2ebb8c99f34cea24279ad7f659978a311f",
          "blockNumber": "0x14",
          "blockTimestamp": "0x66e72f41",
          "transactionHash": "0xf2297fb207eaf72e3b34994f3d72a7b42d17c3634d9e309708256f9c17c3a388",
          "transactionIndex": "0x0",
          "logIndex": "0x0",
          "removed": false
        },
        {
          "address": "0xc6ba8c3233ecf65b761049ef63466945c362edd2",
          "topics": [
            "0xddf252ad1be2c89b69c2b068fc378daa952ba7f163c4a11628f55a4df523b3ef",
            "0x00000000000000000000000070997970c51812dc3a010c7d01b50e0d17dc79c8",
            "0x0000000000000000000000008464135c8f25da09e49bc8782676a84730c318bc"
          ],
          "data": "0x00000000000000000000000000000000000000000000000029a2241af62c0000",
          "blockHash": "0xe5933239cb3d764404e97d704d34be2ebb8c99f34cea24279ad7f659978a311f",
          "blockNumber": "0x14",
          "blockTimestamp": "0x66e72f41",
          "transactionHash": "0xf2297fb207eaf72e3b34994f3d72a7b42d17c3634d9e309708256f9c17c3a388",
          "transactionIndex": "0x0",
          "logIndex": "0x1",
          "removed": false
        },
        {
          "address": "0x90118d110b07abb82ba8980d1c5cc96eea810d2c",
          "topics": [
            "0xddf252ad1be2c89b69c2b068fc378daa952ba7f163c4a11628f55a4df523b3ef",
            "0x0000000000000000000000008464135c8f25da09e49bc8782676a84730c318bc",
            "0x00000000000000000000000070997970c51812dc3a010c7d01b50e0d17dc79c8"
          ],
          "data": "0x0000000000000000000000000000000000000000000000002951ca03ac75f464",
          "blockHash": "0xe5933239cb3d764404e97d704d34be2ebb8c99f34cea24279ad7f659978a311f",
          "blockNumber": "0x14",
          "blockTimestamp": "0x66e72f41",
          "transactionHash": "0xf2297fb207eaf72e3b34994f3d72a7b42d17c3634d9e309708256f9c17c3a388",
          "transactionIndex": "0x0",
          "logIndex": "0x2",
          "removed": false
        }
      ],
      "logsBloom": "0x000000000000000000020000000000000000000000000000000400000008000000040000000000040000000000000000000000000400000000002000000000000000000000000000000004080000000000000000000020200000000000000000000008000000000000000000000000000000000000000000000000100000000000000c0000000000000000002000004000000000000000000000000008000000000000000000000000000000000000040008000020000000000000000000000000000002000000000000000000000080000100000000004000000000000000000000000000000000004000000000000001000000000000000000000000000000",
      "type": "0x2",
      "transactionHash": "0xf2297fb207eaf72e3b34994f3d72a7b42d17c3634d9e309708256f9c17c3a388",
      "transactionIndex": "0x0",
      "blockHash": "0xe5933239cb3d764404e97d704d34be2ebb8c99f34cea24279ad7f659978a311f",
      "blockNumber": "0x14",
      "gasUsed": "0x233a5",
      "effectiveGasPrice": "0x5472bb8",
      "blobGasPrice": "0x1",
      "from": "0x70997970c51812dc3a010c7d01b50e0d17dc79c8",
      "to": "0x71c95911e9a5d330f4d621842ec243ee1343292e",
      "contractAddress": null,
      "root": "0xfa0669f32caceb3802c1263d9a9d43da987180c202e5821cbfab39a949ee1dd6"
    }
  ],
  "libraries": [],
  "pending": [],
  "returns": {},
  "timestamp": 1726426945,
  "chain": 31337,
  "commit": "77db34f"
}