{
  "transactions": [
    {
      "hash": "0xbd0886e63ceda2b271444b2b6f520d567ca932148e6308f6324f59bfdfd28003",
      "transactionType": "CALL",
      "contractName": null,
      "contractAddress": "0x71c95911e9a5d330f4d621842ec243ee1343292e",
      "function": "swap((address,address,uint24,int24,address),(bool,int256,uint160),(bool,bool),bytes)",
      "arguments": [
        "(0x90118d110B07ABB82Ba8980D1c5cC96EeA810d2C, 0xC6bA8C3233eCF65B761049ef63466945c362EdD2, 8388608, 60, 0x207466A2D5A09f943b391de7c147e67b7428A080)",
        "(false, -30000000000000000000, 1461446703485210103287273052203988822378723970341)",
        "(false, false)",
        "0x"
      ],
      "transaction": {
        "from": "0x70997970c51812dc3a010c7d01b50e0d17dc79c8",
        "to": "0x71c95911e9a5d330f4d621842ec243ee1343292e",
        "gas": "0x2abea",
        "value": "0x0",
        "input": "0x2229d0b400000000000000000000000090118d110b07abb82ba8980d1c5cc96eea810d2c000000000000000000000000c6ba8c3233ecf65b761049ef63466945c362edd20000000000000000000000000000000000000000000000000000000000800000000000000000000000000000000000000000000000000000000000000000003c000000000000000000000000207466a2d5a09f943b391de7c147e67b7428a0800000000000000000000000000000000000000000000000000000000000000000fffffffffffffffffffffffffffffffffffffffffffffffe5faa96f262480000000000000000000000000000fffd8963efd1fc6a506488495d951d5263988d250000000000000000000000000000000000000000000000000000000000000000000000000000000000000000000000000000000000000000000000000000000000000000000000000000000000000000000000000000000000000000000001600000000000000000000000000000000000000000000000000000000000000000",
        "nonce": "0x20",
        "chainId": "0x7a69"
      },
      "additionalContracts": [],
      "isFixedGasLimit": false
    }
  ],
  "receipts": [
    {
      "status": "0x1",
      "cumulativeGasUsed": "0x234d8",
      "logs": [
        {
          "address": "0x8464135c8f25da09e49bc8782676a84730c318bc",
          "topics": [
            "0x40e9cecb9f5f1f1c5b9c97dec2917b7ee92e57ba5563708daca94dd84ad7112f",
            "0xeb6616e4cbfcdd0186a80824ee2eba8f75d103e31d7cf568ad1de0b39115074c",
            "0x00000000000000000000000071c95911e9a5d330f4d621842ec243ee1343292e"
          ],
          "data": "0x0000000000000000000000000000000000000000000000019a7188263255470cfffffffffffffffffffffffffffffffffffffffffffffffe5faa96f26248000000000000000000000000000000000000000000010224bcf7e86576d5b1d2513c00000000000000000000000000000000000000000000010f0cf064dd5920010f00000000000000000000000000000000000000000000000000000000000000a60000000000000000000000000000000000000000000000000000000000000db9",
          "blockHash": "0xfe8cfec6436125b5f321f110751789136aa99bc71db2d1acc88bbbd38817cff7",
          "blockNumber": "0x15",
          "blockTimestamp": "0x66e72f53",
          "transactionHash": "0xbd0886e63ceda2b271444b2b6f520d567ca932148e6308f6324f59bfdfd28003",
          "transactionIndex": "0x0",
          "logIndex": "0x0",
          "removed": false
        },
        {
          "address": "0xc6ba8c3233ecf65b761049ef63466945c362edd2",
          "topics": [
            "0xddf252ad1be2c89b69c2b068fc378daa952ba7f163c4a11628f55a4df523b3ef",
            "0x00000000000000000000000070997970c51812dc3a010c7d01b50e0d17dc79c8",
            "0x0000000000000000000000008464135c8f25da09e49bc8782676a84730c318bc"
          ],
          "data": "0x000000000000000000000000000000000000000000000001a055690d9db80000",
          "blockHash": "0xfe8cfec6436125b5f321f110751789136aa99bc71db2d1acc88bbbd38817cff7",
          "blockNumber": "0x15",
          "blockTimestamp": "0x66e72f53",
          "transactionHash": "0xbd0886e63ceda2b271444b2b6f520d567ca932148e6308f6324f59bfdfd28003",
          "transactionIndex": "0x0",
          "logIndex": "0x1",
          "removed": false
        },
        {
          "address": "0x90118d110b07abb82ba8980d1c5cc96eea810d2c",
          "topics": [
            "0xddf252ad1be2c89b69c2b068fc378daa952ba7f163c4a11628f55a4df523b3ef",
            "0x0000000000000000000000008464135c8f25da09e49bc8782676a84730c318bc",
            "0x00000000000000000000000070997970c51812dc3a010c7d01b50e0d17dc79c8"
          ],
          "data": "0x0000000000000000000000000000000000000000000000019a7188263255470c",
          "blockHash": "0xfe8cfec6436125b5f321f110751789136aa99bc71db2d1acc88bbbd38817cff7",
          "blockNumber": "0x15",
          "blockTimestamp": "0x66e72f53",
          "transactionHash": "0xbd0886e63ceda2b271444b2b6f520d567ca932148e6308f6324f59bfdfd28003",
          "transactionIndex": "0x0",
          "logIndex": "0x2",
          "removed": false
        }
      ],
      "logsBloom": "0x000000000000000000020000000000000000000000000000000400000008000000040000000000040000000000000000000000000400000000002000000000000000000000000000000004080000000000000000000020200000000000000000000008000000000000000000000000000000000000000000000000100000000000000c0000000000000000002000004000000000000000000000000008000000000000000000000000000000000000040008000020000000000000000000000000000002000000000000000000000080000100000000004000000000000000000000000000000000004000000000000001000000000000000000000000000000",
      "type": "0x2",
      "transactionHash": "0xbd0886e63ceda2b271444b2b6f520d567ca932148e6308f6324f59bfdfd28003",
      "transactionIndex": "0x0",
      "blockHash": "0xfe8cfec6436125b5f321f110751789136aa99bc71db2d1acc88bbbd38817cff7",
      "blockNumber": "0x15",
      "gasUsed": "0x234d8",
      "effectiveGasPrice": "0x49fe62e",
      "blobGasPrice": "0x1",
      "from": "0x70997970c51812dc3a010c7d01b50e0d17dc79c8",
      "to": "0x71c95911e9a5d330f4d621842ec243ee1343292e",
      "contractAddress": null,
      "root": "0xa088d78d32f2a21b20ef6c5b38fb80140312875b505d753b3700a4377b914fbd"
    }
  ],
  "libraries": [],
  "pending": [],
  "returns": {},
  "timestamp": 1726426963,
  "chain": 31337,
  "commit": "77db34f"
}