{
  "transactions": [
    {
      "hash": "0xca193688f4834ea0cb1ab871221ef85160def66c30a5068e08b5a3ef34b7125e",
      "transactionType": "CALL",
      "contractName": null,
      "contractAddress": "0x71c95911e9a5d330f4d621842ec243ee1343292e",
      "function": "swap((address,address,uint24,int24,address),(bool,int256,uint160),(bool,bool),bytes)",
      "arguments": [
        "(0x90118d110B07ABB82Ba8980D1c5cC96EeA810d2C, 0xC6bA8C3233eCF65B761049ef63466945c362EdD2, 8388608, 60, 0x9a55029d9A5379097bD99d90bEFD73987983a080)",
        "(false, -30000000000000000000, 1461446703485210103287273052203988822378723970341)",
        "(false, false)",
        "0x"
      ],
      "transaction": {
        "from": "0x70997970c51812dc3a010c7d01b50e0d17dc79c8",
        "to": "0x71c95911e9a5d330f4d621842ec243ee1343292e",
        "gas": "0x43af7",
        "value": "0x0",
        "input": "0x2229d0b400000000000000000000000090118d110b07abb82ba8980d1c5cc96eea810d2c000000000000000000000000c6ba8c3233ecf65b761049ef63466945c362edd20000000000000000000000000000000000000000000000000000000000800000000000000000000000000000000000000000000000000000000000000000003c0000000000000000000000009a55029d9a5379097bd99d90befd73987983a0800000000000000000000000000000000000000000000000000000000000000000fffffffffffffffffffffffffffffffffffffffffffffffe5faa96f262480000000000000000000000000000fffd8963efd1fc6a506488495d951d5263988d250000000000000000000000000000000000000000000000000000000000000000000000000000000000000000000000000000000000000000000000000000000000000000000000000000000000000000000000000000000000000000000001600000000000000000000000000000000000000000000000000000000000000000",
        "nonce": "0x1d",
        "chainId": "0x7a69"
      },
      "additionalContracts": [],
      "isFixedGasLimit": false
    }
  ],
  "receipts": [
    {
      "status": "0x1",
      "cumulativeGasUsed": "0x3100d",
      "logs": [
        {
          "address": "0x8464135c8f25da09e49bc8782676a84730c318bc",
          "topics": [
            "0x40e9cecb9f5f1f1c5b9c97dec2917b7ee92e57ba5563708daca94dd84ad7112f",
            "0x03e11d5fbe2d423ba2f90c965439a936d4715de3e1e6bdbf3236af01b7966e98",
            "0x00000000000000000000000071c95911e9a5d330f4d621842ec243ee1343292e"
          ],
          "data": "0x00000000000000000000000000000000000000000000000197b9402262e4411efffffffffffffffffffffffffffffffffffffffffffffffe5faa96f26248000000000000000000000000000000000000000000010311409a2403148773704b7e00000000000000000000000000000000000000000000010f0cf064dd5920010f00000000000000000000000000000000000000000000000000000000000000ee0000000000000000000000000000000000000000000000000000000000000bb8",
          "blockHash": "0xafd49b9a0aa6bf7e57128a35f848cb3eee50d6c61cd3c56199a908e53ef7925e",
          "blockNumber": "0x13",
          "blockTimestamp": "0x66e6c445",
          "transactionHash": "0xca193688f4834ea0cb1ab871221ef85160def66c30a5068e08b5a3ef34b7125e",
          "transactionIndex": "0x0",
          "logIndex": "0x0",
          "removed": false
        },
        {
          "address": "0xc6ba8c3233ecf65b761049ef63466945c362edd2",
          "topics": [
            "0xddf252ad1be2c89b69c2b068fc378daa952ba7f163c4a11628f55a4df523b3ef",
            "0x00000000000000000000000070997970c51812dc3a010c7d01b50e0d17dc79c8",
            "0x0000000000000000000000008464135c8f25da09e49bc8782676a84730c318bc"
          ],
          "data": "0x000000000000000000000000000000000000000000000001a055690d9db80000",
          "blockHash": "0xafd49b9a0aa6bf7e57128a35f848cb3eee50d6c61cd3c56199a908e53ef7925e",
          "blockNumber": "0x13",
          "blockTimestamp": "0x66e6c445",
          "transactionHash": "0xca193688f4834ea0cb1ab871221ef85160def66c30a5068e08b5a3ef34b7125e",
          "transactionIndex": "0x0",
          "logIndex": "0x1",
          "removed": false
        },
        {
          "address": "0x90118d110b07abb82ba8980d1c5cc96eea810d2c",
          "topics": [
            "0xddf252ad1be2c89b69c2b068fc378daa952ba7f163c4a11628f55a4df523b3ef",
            "0x0000000000000000000000008464135c8f25da09e49bc8782676a84730c318bc",
            "0x00000000000000000000000070997970c51812dc3a010c7d01b50e0d17dc79c8"
          ],
          "data": "0x00000000000000000000000000000000000000000000000197b9402262e4411e",
          "blockHash": "0xafd49b9a0aa6bf7e57128a35f848cb3eee50d6c61cd3c56199a908e53ef7925e",
          "blockNumber": "0x13",
          "blockTimestamp": "0x66e6c445",
          "transactionHash": "0xca193688f4834ea0cb1ab871221ef85160def66c30a5068e08b5a3ef34b7125e",
          "transactionIndex": "0x0",
          "logIndex": "0x2",
          "removed": false
        }
      ],
      "logsBloom": "0x000000000000000000020000000000000000000000000000000400000000000000000000000000040000000000000000000000000400000000002000000000000000100000000000000004080000000000000000000020200000000000000000000008000000000000000000000000000000000000000000000000100000000000000c0000000000000000002000004000000000000000000000000000000000000000000000000000000000000000040008000020000000000000000000000000000002000000000000010000000080000100000000004000000000000000000000000000000000004000000000000001000000000000000000000000000000",
      "type": "0x2",
      "transactionHash": "0xca193688f4834ea0cb1ab871221ef85160def66c30a5068e08b5a3ef34b7125e",
      "transactionIndex": "0x0",
      "blockHash": "0xafd49b9a0aa6bf7e57128a35f848cb3eee50d6c61cd3c56199a908e53ef7925e",
      "blockNumber": "0x13",
      "gasUsed": "0x3100d",
      "effectiveGasPrice": "0x60138b6",
      "blobGasPrice": "0x1",
      "from": "0x70997970c51812dc3a010c7d01b50e0d17dc79c8",
      "to": "0x71c95911e9a5d330f4d621842ec243ee1343292e",
      "contractAddress": null,
      "root": "0x956357a491a927d29f13465b0ed420dbb59aa3cf0ff2316d8f13f32d7855a121"
    }
  ],
  "libraries": [],
  "pending": [],
  "returns": {},
  "timestamp": 1726399557,
  "chain": 31337,
  "commit": "58770db"
}